{
  "abi": [
    {
      "inputs": [],
      "stateMutability": "nonpayable",
      "type": "constructor"
    },
    {
      "inputs": [],
      "name": "BetAlreadySettled",
      "type": "error"
    },
    {
      "inputs": [],
      "name": "BetExceedsModulo",
      "type": "error"
    },
    {
      "inputs": [
        {
          "internalType": "uint256",
          "name": "amount",
          "type": "uint256"
        }
      ],
      "name": "BetMaskOutOfRange",
      "type": "error"
    },
    {
      "inputs": [],
      "name": "BetNotExist",
      "type": "error"
    },
    {
      "inputs": [
        {
          "internalType": "uint256",
          "name": "amount",
          "type": "uint256"
        }
      ],
      "name": "BetOutOfRange",
      "type": "error"
    },
    {
      "inputs": [],
      "name": "InsaneMaxBet",
      "type": "error"
    },
    {
      "inputs": [],
      "name": "InsaneMaxProfit",
      "type": "error"
    },
    {
      "inputs": [
        {
          "internalType": "uint256",
          "name": "amount",
          "type": "uint256"
        }
      ],
      "name": "ModuloOutOfRange",
      "type": "error"
    },
    {
      "inputs": [],
      "name": "NotEnoughLinkToken",
      "type": "error"
    },
    {
      "inputs": [],
      "name": "ProbablityOutOfRange",
      "type": "error"
    },
    {
      "inputs": [],
      "name": "RefundPeriodNotElapsed",
      "type": "error"
    },
    {
      "inputs": [],
      "name": "WinExceedsCurrentFunds",
      "type": "error"
    },
    {
      "inputs": [],
      "name": "WinExceedsMaxProfit",
      "type": "error"
    },
    {
      "inputs": [],
      "name": "WithdrawExceedsBalance",
      "type": "error"
    },
    {
      "inputs": [],
      "name": "WithdrawExceedsFreeBalance",
      "type": "error"
    },
    {
      "anonymous": false,
      "inputs": [
        {
          "indexed": true,
          "internalType": "uint256",
          "name": "betId",
          "type": "uint256"
        },
        {
          "indexed": true,
          "internalType": "address",
          "name": "gambler",
          "type": "address"
        }
      ],
      "name": "BetPlaced",
      "type": "event"
    },
    {
      "anonymous": false,
      "inputs": [
        {
          "indexed": true,
          "internalType": "uint256",
          "name": "betId",
          "type": "uint256"
        },
        {
          "indexed": true,
          "internalType": "address",
          "name": "gambler",
          "type": "address"
        }
      ],
      "name": "BetRefunded",
      "type": "event"
    },
    {
      "anonymous": false,
      "inputs": [
        {
          "indexed": true,
          "internalType": "uint256",
          "name": "betId",
          "type": "uint256"
        },
        {
          "indexed": true,
          "internalType": "address",
          "name": "gambler",
          "type": "address"
        },
        {
          "indexed": false,
          "internalType": "uint256",
          "name": "amount",
          "type": "uint256"
        },
        {
          "indexed": true,
          "internalType": "uint8",
          "name": "modulo",
          "type": "uint8"
        },
        {
          "indexed": false,
          "internalType": "uint8",
          "name": "rollUnder",
          "type": "uint8"
        },
        {
          "indexed": false,
          "internalType": "uint40",
          "name": "mask",
          "type": "uint40"
        },
        {
          "indexed": false,
          "internalType": "uint256",
          "name": "outcome",
          "type": "uint256"
        },
        {
          "indexed": false,
          "internalType": "uint256",
          "name": "winAmount",
          "type": "uint256"
        }
      ],
      "name": "BetSettled",
      "type": "event"
    },
    {
      "anonymous": false,
      "inputs": [
        {
          "indexed": true,
          "internalType": "address",
          "name": "previousOwner",
          "type": "address"
        },
        {
          "indexed": true,
          "internalType": "address",
          "name": "newOwner",
          "type": "address"
        }
      ],
      "name": "OwnershipTransferred",
      "type": "event"
    },
    {
      "anonymous": false,
      "inputs": [
        {
          "indexed": false,
          "internalType": "address",
          "name": "account",
          "type": "address"
        }
      ],
      "name": "Paused",
      "type": "event"
    },
    {
      "anonymous": false,
      "inputs": [
        {
          "indexed": false,
          "internalType": "address",
          "name": "account",
          "type": "address"
        }
      ],
      "name": "Unpaused",
      "type": "event"
    },
    {
      "stateMutability": "payable",
      "type": "fallback"
    },
    {
      "inputs": [],
      "name": "KEY_HASH",
      "outputs": [
        {
          "internalType": "bytes32",
          "name": "",
          "type": "bytes32"
        }
      ],
      "stateMutability": "view",
      "type": "function"
    },
    {
      "inputs": [],
      "name": "LINK_TOKEN",
      "outputs": [
        {
          "internalType": "address",
          "name": "",
          "type": "address"
        }
      ],
      "stateMutability": "view",
      "type": "function"
    },
    {
      "inputs": [],
      "name": "VRF_COORDINATOR",
      "outputs": [
        {
          "internalType": "address",
          "name": "",
          "type": "address"
        }
      ],
      "stateMutability": "view",
      "type": "function"
    },
    {
      "inputs": [
        {
          "internalType": "bytes32",
          "name": "",
          "type": "bytes32"
        }
      ],
      "name": "betMap",
      "outputs": [
        {
          "internalType": "uint256",
          "name": "",
          "type": "uint256"
        }
      ],
      "stateMutability": "view",
      "type": "function"
    },
    {
      "inputs": [
        {
          "internalType": "uint256",
          "name": "",
          "type": "uint256"
        }
      ],
      "name": "bets",
      "outputs": [
        {
          "internalType": "uint256",
          "name": "amount",
          "type": "uint256"
        },
        {
          "internalType": "uint8",
          "name": "modulo",
          "type": "uint8"
        },
        {
          "internalType": "uint8",
          "name": "rollUnder",
          "type": "uint8"
        },
        {
          "internalType": "uint40",
          "name": "mask",
          "type": "uint40"
        },
        {
          "internalType": "uint256",
          "name": "placeBlockNumber",
          "type": "uint256"
        },
        {
          "internalType": "address payable",
          "name": "gambler",
          "type": "address"
        },
        {
          "internalType": "bool",
          "name": "isSettled",
          "type": "bool"
        },
        {
          "internalType": "uint256",
          "name": "outcome",
          "type": "uint256"
        },
        {
          "internalType": "uint256",
          "name": "winAmount",
          "type": "uint256"
        },
        {
          "internalType": "uint256",
          "name": "randomNumber",
          "type": "uint256"
        }
      ],
      "stateMutability": "view",
      "type": "function"
    },
    {
      "inputs": [],
      "name": "betsLength",
      "outputs": [
        {
          "internalType": "uint256",
          "name": "",
          "type": "uint256"
        }
      ],
      "stateMutability": "view",
      "type": "function"
    },
    {
      "inputs": [],
      "name": "chainlinkFee",
      "outputs": [
        {
          "internalType": "uint256",
          "name": "",
          "type": "uint256"
        }
      ],
      "stateMutability": "view",
      "type": "function"
    },
    {
      "inputs": [],
      "name": "cumulativeDeposit",
      "outputs": [
        {
          "internalType": "uint256",
          "name": "",
          "type": "uint256"
        }
      ],
      "stateMutability": "view",
      "type": "function"
    },
    {
      "inputs": [],
      "name": "cumulativeWithdrawal",
      "outputs": [
        {
          "internalType": "uint256",
          "name": "",
          "type": "uint256"
        }
      ],
      "stateMutability": "view",
      "type": "function"
    },
    {
      "inputs": [],
      "name": "getBalanceETH",
      "outputs": [
        {
          "internalType": "uint256",
          "name": "",
          "type": "uint256"
        }
      ],
      "stateMutability": "view",
      "type": "function"
    },
    {
      "inputs": [],
      "name": "getBalanceLINK",
      "outputs": [
        {
          "internalType": "uint256",
          "name": "",
          "type": "uint256"
        }
      ],
      "stateMutability": "view",
      "type": "function"
    },
    {
      "inputs": [],
      "name": "houseEdgePercent",
      "outputs": [
        {
          "internalType": "uint256",
          "name": "",
          "type": "uint256"
        }
      ],
      "stateMutability": "view",
      "type": "function"
    },
    {
      "inputs": [],
      "name": "lockedInBets",
      "outputs": [
        {
          "internalType": "uint256",
          "name": "",
          "type": "uint256"
        }
      ],
      "stateMutability": "view",
      "type": "function"
    },
    {
      "inputs": [],
      "name": "maxBetAmount",
      "outputs": [
        {
          "internalType": "uint256",
          "name": "",
          "type": "uint256"
        }
      ],
      "stateMutability": "view",
      "type": "function"
    },
    {
      "inputs": [],
      "name": "maxProfit",
      "outputs": [
        {
          "internalType": "uint256",
          "name": "",
          "type": "uint256"
        }
      ],
      "stateMutability": "view",
      "type": "function"
    },
    {
      "inputs": [],
      "name": "minBetAmount",
      "outputs": [
        {
          "internalType": "uint256",
          "name": "",
          "type": "uint256"
        }
      ],
      "stateMutability": "view",
      "type": "function"
    },
    {
      "inputs": [],
      "name": "owner",
      "outputs": [
        {
          "internalType": "address",
          "name": "",
          "type": "address"
        }
      ],
      "stateMutability": "view",
      "type": "function"
    },
    {
      "inputs": [],
      "name": "paused",
      "outputs": [
        {
          "internalType": "bool",
          "name": "",
          "type": "bool"
        }
      ],
      "stateMutability": "view",
      "type": "function"
    },
    {
      "inputs": [
        {
          "internalType": "uint256",
          "name": "betMask",
          "type": "uint256"
        },
        {
          "internalType": "uint256",
          "name": "modulo",
          "type": "uint256"
        }
      ],
      "name": "placeBet",
      "outputs": [],
      "stateMutability": "payable",
      "type": "function"
    },
    {
      "inputs": [
        {
          "internalType": "bytes32",
          "name": "requestId",
          "type": "bytes32"
        },
        {
          "internalType": "uint256",
          "name": "randomness",
          "type": "uint256"
        }
      ],
      "name": "rawFulfillRandomness",
      "outputs": [],
      "stateMutability": "nonpayable",
      "type": "function"
    },
    {
      "inputs": [
        {
          "internalType": "uint256",
          "name": "betId",
          "type": "uint256"
        }
      ],
      "name": "refundBet",
      "outputs": [],
      "stateMutability": "payable",
      "type": "function"
    },
    {
      "inputs": [],
      "name": "renounceOwnership",
      "outputs": [],
      "stateMutability": "nonpayable",
      "type": "function"
    },
    {
      "inputs": [
        {
          "internalType": "uint256",
          "name": "_chainlinkFee",
          "type": "uint256"
        }
      ],
      "name": "setChainlinkFee",
      "outputs": [],
      "stateMutability": "nonpayable",
      "type": "function"
    },
    {
      "inputs": [
        {
          "internalType": "uint256",
          "name": "_houseEdgePercent",
          "type": "uint256"
        }
      ],
      "name": "setHouseEdge",
      "outputs": [],
      "stateMutability": "nonpayable",
      "type": "function"
    },
    {
      "inputs": [
        {
          "internalType": "uint256",
          "name": "_maxBetAmount",
          "type": "uint256"
        }
      ],
      "name": "setMaxBetAmount",
      "outputs": [],
      "stateMutability": "nonpayable",
      "type": "function"
    },
    {
      "inputs": [
        {
          "internalType": "uint256",
          "name": "_maxProfit",
          "type": "uint256"
        }
      ],
      "name": "setMaxProfit",
      "outputs": [],
      "stateMutability": "nonpayable",
      "type": "function"
    },
    {
      "inputs": [
        {
          "internalType": "uint256",
          "name": "_minBetAmount",
          "type": "uint256"
        }
      ],
      "name": "setMinBetAmount",
      "outputs": [],
      "stateMutability": "nonpayable",
      "type": "function"
    },
    {
      "inputs": [
        {
          "internalType": "uint256",
          "name": "_wealthTaxIncrementPercent",
          "type": "uint256"
        }
      ],
      "name": "setWealthTaxIncrementPercent",
      "outputs": [],
      "stateMutability": "nonpayable",
      "type": "function"
    },
    {
      "inputs": [
        {
          "internalType": "uint256",
          "name": "_wealthTaxIncrementThreshold",
          "type": "uint256"
        }
      ],
      "name": "setWealthTaxIncrementThreshold",
      "outputs": [],
      "stateMutability": "nonpayable",
      "type": "function"
    },
    {
      "inputs": [
        {
          "internalType": "address",
          "name": "newOwner",
          "type": "address"
        }
      ],
      "name": "transferOwnership",
      "outputs": [],
      "stateMutability": "nonpayable",
      "type": "function"
    },
    {
      "inputs": [],
      "name": "wealthTaxIncrementPercent",
      "outputs": [
        {
          "internalType": "uint256",
          "name": "",
          "type": "uint256"
        }
      ],
      "stateMutability": "view",
      "type": "function"
    },
    {
      "inputs": [],
      "name": "wealthTaxIncrementThreshold",
      "outputs": [
        {
          "internalType": "uint256",
          "name": "",
          "type": "uint256"
        }
      ],
      "stateMutability": "view",
      "type": "function"
    },
    {
      "inputs": [],
      "name": "withdrawAll",
      "outputs": [],
      "stateMutability": "nonpayable",
      "type": "function"
    },
    {
      "inputs": [
        {
          "internalType": "address payable",
          "name": "beneficiary",
          "type": "address"
        },
        {
          "internalType": "uint256",
          "name": "withdrawAmount",
          "type": "uint256"
        }
      ],
      "name": "withdrawFunds",
      "outputs": [],
      "stateMutability": "nonpayable",
      "type": "function"
    },
    {
      "inputs": [
        {
          "internalType": "address",
          "name": "token_address",
          "type": "address"
        }
      ],
      "name": "withdrawTokens",
      "outputs": [],
      "stateMutability": "nonpayable",
      "type": "function"
    },
    {
      "stateMutability": "payable",
      "type": "receive"
    }
  ],
  "bytecode": {
    "object": "0x60c060405267016345785d8a0000600455600160055568a2a15d09519be00000600855600160095566038d7ea4c68000600a5568056bc75e2d63100000600b5568a2a15d09519be00000600c5534801561005857600080fd5b5073b3dccb4cf7a26f6cf6b120cf5a73875b7bbc655b60a0527301be23585060835e02b77ef475b0cc51aa1e0709608052610092336100a6565b60016002556003805460ff191690556100f8565b600180546001600160a01b038381166001600160a01b0319831681179093556040519116919082907f8be0079c531659141344cd1fd0a4f28419497f9722a3daafe3b4186f6b6457e090600090a35050565b60805160a051611f3961013260003960008181610eff0152611509015260008181610825015281816110ea01526114da0152611f396000f3fe6080604052600436106102085760003560e01c80638da5cb5b11610118578063cab11d5d116100a0578063ed3b37231161006f578063ed3b3723146105f9578063eedac3a614610626578063f2fde38b1461064e578063fa968eea1461066e578063fbd668a91461068457610227565b8063cab11d5d146105a5578063d1cc24ec146105bb578063df88126f146105d0578063e1fdb4b4146105e657610227565b8063af3dc07f116100e7578063af3dc07f14610519578063b539cd5514610539578063bbd2e01e1461054f578063bd7fd78d14610565578063c10753291461058557610227565b80638da5cb5b146104a857806394985ddd146104c6578063a284673f146104e6578063acd1f2541461050657610227565b80635c975abb1161019b578063715018a61161016a578063715018a61461043257806372318cf9146104475780637ac98be11461045d5780637cfbc7a514610473578063853828b61461049357610227565b80635c975abb146103b95780636c188593146103dc5780636cd0f102146103fc57806370d8c5781461041c57610227565b8063386d5fe6116101d7578063386d5fe61461033a57806349df728c146103505780634afe62b51461037257806351dc86a51461038557610227565b806305f6a924146102395780630c531f271461027e5780631f9d3a2b146102a257806322af00fa146102b857610227565b3661022757346006600082825461021f9190611b66565b925050819055005b346006600082825461021f9190611b66565b34801561024557600080fd5b5061026173b3dccb4cf7a26f6cf6b120cf5a73875b7bbc655b81565b6040516001600160a01b0390911681526020015b60405180910390f35b34801561028a57600080fd5b5061029460065481565b604051908152602001610275565b3480156102ae57600080fd5b5061029460055481565b3480156102c457600080fd5b506102d86102d3366004611b7e565b6106a4565b604080519a8b5260ff998a1660208c0152979098169689019690965264ffffffffff94909416606088015260808701929092526001600160a01b031660a0860152151560c085015260e084015261010083015261012082015261014001610275565b34801561034657600080fd5b5061029460095481565b34801561035c57600080fd5b5061037061036b366004611bac565b61071f565b005b610370610380366004611bc9565b6107e3565b34801561039157600080fd5b506102947f2ed0feb3e7fd2022120aa84fab1945545a9f2ffc9076fd6156fa96eaff4c131181565b3480156103c557600080fd5b5060035460ff166040519015158152602001610275565b3480156103e857600080fd5b506103706103f7366004611b7e565b610ce0565b34801561040857600080fd5b50610370610417366004611b7e565b610d0f565b34801561042857600080fd5b5061029460085481565b34801561043e57600080fd5b50610370610d3e565b34801561045357600080fd5b5061029460075481565b34801561046957600080fd5b5061029460045481565b34801561047f57600080fd5b5061037061048e366004611b7e565b610d74565b34801561049f57600080fd5b50610370610dcf565b3480156104b457600080fd5b506001546001600160a01b0316610261565b3480156104d257600080fd5b506103706104e1366004611bc9565b610ef4565b3480156104f257600080fd5b50610370610501366004611b7e565b610f7a565b34801561051257600080fd5b5047610294565b34801561052557600080fd5b50610370610534366004611b7e565b610fa9565b34801561054557600080fd5b50610294600c5481565b34801561055b57600080fd5b50610294600f5481565b34801561057157600080fd5b50610370610580366004611b7e565b610fd8565b34801561059157600080fd5b506103706105a0366004611beb565b611007565b3480156105b157600080fd5b50610294600b5481565b3480156105c757600080fd5b506102946110d2565b3480156105dc57600080fd5b50610294600d5481565b6103706105f4366004611b7e565b611162565b34801561060557600080fd5b50610294610614366004611b7e565b60106020526000908152604090205481565b34801561063257600080fd5b506102617301be23585060835e02b77ef475b0cc51aa1e070981565b34801561065a57600080fd5b50610370610669366004611bac565b611307565b34801561067a57600080fd5b50610294600a5481565b34801561069057600080fd5b5061037061069f366004611b7e565b61139f565b600e81815481106106b457600080fd5b6000918252602090912060079091020180546001820154600283015460038401546004850154600586015460069096015494965060ff8085169661010086048216966201000090960464ffffffffff16956001600160a01b03851694600160a01b900490921692918a565b6001546001600160a01b031633146107525760405162461bcd60e51b815260040161074990611c17565b60405180910390fd5b6107e06107676001546001600160a01b031690565b6040516370a0823160e01b81523060048201526001600160a01b038416906370a0823190602401602060405180830381865afa1580156107ab573d6000803e3d6000fd5b505050506040513d601f19601f820116820180604052508101906107cf9190611c4c565b6001600160a01b03841691906113fa565b50565b60028054036108045760405162461bcd60e51b815260040161074990611c65565b60028055600480546040516370a0823160e01b8152309281019290925234917f00000000000000000000000000000000000000000000000000000000000000006001600160a01b0316906370a0823190602401602060405180830381865afa158015610874573d6000803e3d6000fd5b505050506040513d601f19601f820116820180604052508101906108989190611c4c565b10156108b7576040516364b72d6760e11b815260040160405180910390fd5b600a548110806108c8575080600b54105b156108e9576040516349d7eaf760e11b815260048101829052602401610749565b6001821115806108f95750816064105b1561091a5760405163505e567560e01b815260048101839052602401610749565b82158061093157508261092f60286002611d80565b105b156109525760405163396c87a760e01b815260048101849052602401610749565b600080602884116109b857603f7e010410410410410410410410410410410410410410410410410410410410416109a379200000000010000000000800000000040000000002000000000188611d8c565b166109ae9190611dc1565b91508490506109e6565b8415806109c457508484105b156109e257604051631e51c6bb60e21b815260040160405180910390fd5b8491505b60006109f3848685611451565b905080600c5485610a049190611b66565b1015610a2357604051633bd9f7af60e11b815260040160405180910390fd5b80600d54610a319190611b66565b471015610a5157604051633886600b60e01b815260040160405180910390fd5b80600d6000828254610a639190611b66565b9091555050604080516101408101825285815260ff8088166020830190815286821693830193845264ffffffffff8087166060850190815243608086019081523360a08701908152600060c0880181815260e08901828152610100808b018481526101208c01858152600e80546001810182559087529c516007909d027fbb7b4a454dc3493923482f07822329ed19e8244eff582cc204f8554c3620c3fd81019d909d5599517fbb7b4a454dc3493923482f07822329ed19e8244eff582cc204f8554c3620c3fe8d0180549e519951909a16620100000266ffffffffff000019998d1690930261ffff19909e169b169a909a179b909b17959095169990991790945590517fbb7b4a454dc3493923482f07822329ed19e8244eff582cc204f8554c3620c3ff870155517fbb7b4a454dc3493923482f07822329ed19e8244eff582cc204f8554c3620c4008601805497511515600160a01b026001600160a81b03199098166001600160a01b0392909216919091179690961790955593517fbb7b4a454dc3493923482f07822329ed19e8244eff582cc204f8554c3620c40184015590517fbb7b4a454dc3493923482f07822329ed19e8244eff582cc204f8554c3620c402830155517fbb7b4a454dc3493923482f07822329ed19e8244eff582cc204f8554c3620c40390910155600454610c7e907f2ed0feb3e7fd2022120aa84fab1945545a9f2ffc9076fd6156fa96eaff4c1311906114d6565b600f546000828152601060205260408082208390555192935033927f71db8f0b94a6ae898ff1583920da121c8f18ea26ad96353276843685325262e19190a3600f8054906000610ccd83611dd5565b9091555050600160025550505050505050565b6001546001600160a01b03163314610d0a5760405162461bcd60e51b815260040161074990611c17565b600a55565b6001546001600160a01b03163314610d395760405162461bcd60e51b815260040161074990611c17565b600555565b6001546001600160a01b03163314610d685760405162461bcd60e51b815260040161074990611c17565b610d726000611651565b565b6001546001600160a01b03163314610d9e5760405162461bcd60e51b815260040161074990611c17565b806a0422ca8b0a00a4250000001015610dca5760405163c7544a2d60e01b815260040160405180910390fd5b600b55565b6001546001600160a01b03163314610df95760405162461bcd60e51b815260040161074990611c17565b6000600d5447610e099190611dee565b90508060076000828254610e1d9190611b66565b9091555050604051339082156108fc029083906000818181858888f19350505050158015610e4f573d6000803e3d6000fd5b506107e0610e656001546001600160a01b031690565b6040516370a0823160e01b81523060048201527301be23585060835e02b77ef475b0cc51aa1e0709906370a0823190602401602060405180830381865afa158015610eb4573d6000803e3d6000fd5b505050506040513d601f19601f82011682018060405250810190610ed89190611c4c565b7301be23585060835e02b77ef475b0cc51aa1e070991906113fa565b336001600160a01b037f00000000000000000000000000000000000000000000000000000000000000001614610f6c5760405162461bcd60e51b815260206004820152601f60248201527f4f6e6c7920565246436f6f7264696e61746f722063616e2066756c66696c6c006044820152606401610749565b610f7682826116a3565b5050565b6001546001600160a01b03163314610fa45760405162461bcd60e51b815260040161074990611c17565b600455565b6001546001600160a01b03163314610fd35760405162461bcd60e51b815260040161074990611c17565b600855565b6001546001600160a01b031633146110025760405162461bcd60e51b815260040161074990611c17565b600955565b6001546001600160a01b031633146110315760405162461bcd60e51b815260040161074990611c17565b8047101561105257604051635333556f60e11b815260040160405180910390fd5b80600d54476110619190611dee565b101561108057604051631b7cad5760e21b815260040160405180910390fd5b6040516001600160a01b0383169082156108fc029083906000818181858888f193505050501580156110b6573d6000803e3d6000fd5b5080600760008282546110c99190611b66565b90915550505050565b6040516370a0823160e01b81523060048201526000907f00000000000000000000000000000000000000000000000000000000000000006001600160a01b0316906370a0823190602401602060405180830381865afa158015611139573d6000803e3d6000fd5b505050506040513d601f19601f8201168201806040525081019061115d9190611c4c565b905090565b60028054036111835760405162461bcd60e51b815260040161074990611c65565b600280819055506000600e828154811061119f5761119f611e05565b9060005260206000209060070201905080600001546000036111d457604051635c21ed8d60e01b815260040160405180910390fd5b6003810154600160a01b900460ff1615611201576040516305d09e5f60e01b815260040160405180910390fd5b60028101546112129061a8c0611b66565b431015611232576040516364788a2f60e01b815260040160405180910390fd5b805460018201546000916112519160ff80821691610100900416611451565b905080600d60008282546112659190611dee565b909155505060038201805460ff60a01b198116600160a01b179091558254600584018190556040516001600160a01b039092169181156108fc0291906000818181858888f193505050501580156112c0573d6000803e3d6000fd5b5060038201546040516001600160a01b039091169084907f82ed3ad28d47d7fc600c710a2000a6940ee285829493f6a21969b1ccad85ec7090600090a35050600160025550565b6001546001600160a01b031633146113315760405162461bcd60e51b815260040161074990611c17565b6001600160a01b0381166113965760405162461bcd60e51b815260206004820152602660248201527f4f776e61626c653a206e6577206f776e657220697320746865207a65726f206160448201526564647265737360d01b6064820152608401610749565b6107e081611651565b6001546001600160a01b031633146113c95760405162461bcd60e51b815260040161074990611c17565b806a0422ca8b0a00a42500000010156113f557604051635221461f60e01b815260040160405180910390fd5b600c55565b604080516001600160a01b038416602482015260448082018490528251808303909101815260649091019091526020810180516001600160e01b031663a9059cbb60e01b17905261144c9084906116ad565b505050565b600081158061145f57508183105b1561147d576040516303278db560e21b815260040160405180910390fd5b6000606461148a8661177f565b6005546114979190611b66565b6114a19087611d8c565b6114ab9190611e1b565b905082846114b98388611dee565b6114c39190611d8c565b6114cd9190611e1b565b95945050505050565b60007f00000000000000000000000000000000000000000000000000000000000000006001600160a01b0316634000aea07f000000000000000000000000000000000000000000000000000000000000000084866000604051602001611546929190918252602082015260400190565b6040516020818303038152906040526040518463ffffffff1660e01b815260040161157393929190611e8b565b6020604051808303816000875af1158015611592573d6000803e3d6000fd5b505050506040513d601f19601f820116820180604052508101906115b69190611eb2565b5060008381526020818152604080832054815180840188905280830185905230606082015260808082018390528351808303909101815260a090910190925281519183019190912086845292909152611610906001611b66565b600085815260208181526040918290209290925580518083018790528082019390935280518084038201815260609093019052815191012090505b92915050565b600180546001600160a01b038381166001600160a01b0319831681179093556040519116919082907f8be0079c531659141344cd1fd0a4f28419497f9722a3daafe3b4186f6b6457e090600090a35050565b610f76828261179c565b6000611702826040518060400160405280602081526020017f5361666545524332303a206c6f772d6c6576656c2063616c6c206661696c6564815250856001600160a01b03166119cd9092919063ffffffff16565b80519091501561144c57808060200190518101906117209190611eb2565b61144c5760405162461bcd60e51b815260206004820152602a60248201527f5361666545524332303a204552433230206f7065726174696f6e20646964206e6044820152691bdd081cdd58d8d9595960b21b6064820152608401610749565b6000600954600854836117929190611e1b565b61164b9190611d8c565b60028054036117bd5760405162461bcd60e51b815260040161074990611c65565b60028055600082815260106020526040812054600e8054919291839081106117e7576117e7611e05565b60009182526020822060079091020180549092509081900361181c57604051635c21ed8d60e01b815260040160405180910390fd5b6003820154600160a01b900460ff1615611849576040516305d09e5f60e01b815260040160405180910390fd5b6001820154600383015460ff80831692610100900416906001600160a01b031660006118758489611dc1565b90506000611884868686611451565b90506000602886116118c557600188015462010000900464ffffffffff166118ad846002611d80565b16156118ba5750806118c5565b848310156118c55750805b60018801546040805189815260ff88811660208301526201000090930464ffffffffff16918101919091526060810185905260808101839052908716906001600160a01b038616908b907f6cff91e6d6b58d75f3dabb17af3f33987150949dd8c24c48bf0d8d685f474ff99060a00160405180910390a481600d600082825461194e9190611dee565b909155505060038801805460ff60a01b1916600160a01b17905560058801819055600688018a90556004880183905580156119bb576040516001600160a01b0385169082156108fc029083906000818181858888f193505050501580156119b9573d6000803e3d6000fd5b505b50506001600255505050505050505050565b60606119dc84846000856119e6565b90505b9392505050565b606082471015611a475760405162461bcd60e51b815260206004820152602660248201527f416464726573733a20696e73756666696369656e742062616c616e636520666f6044820152651c8818d85b1b60d21b6064820152608401610749565b6001600160a01b0385163b611a9e5760405162461bcd60e51b815260206004820152601d60248201527f416464726573733a2063616c6c20746f206e6f6e2d636f6e74726163740000006044820152606401610749565b600080866001600160a01b03168587604051611aba9190611ed4565b60006040518083038185875af1925050503d8060008114611af7576040519150601f19603f3d011682016040523d82523d6000602084013e611afc565b606091505b5091509150611b0c828286611b17565b979650505050505050565b60608315611b265750816119df565b825115611b365782518084602001fd5b8160405162461bcd60e51b81526004016107499190611ef0565b634e487b7160e01b600052601160045260246000fd5b60008219821115611b7957611b79611b50565b500190565b600060208284031215611b9057600080fd5b5035919050565b6001600160a01b03811681146107e057600080fd5b600060208284031215611bbe57600080fd5b81356119df81611b97565b60008060408385031215611bdc57600080fd5b50508035926020909101359150565b60008060408385031215611bfe57600080fd5b8235611c0981611b97565b946020939093013593505050565b6020808252818101527f4f776e61626c653a2063616c6c6572206973206e6f7420746865206f776e6572604082015260600190565b600060208284031215611c5e57600080fd5b5051919050565b6020808252601f908201527f5265656e7472616e637947756172643a207265656e7472616e742063616c6c00604082015260600190565b600181815b80851115611cd7578160001904821115611cbd57611cbd611b50565b80851615611cca57918102915b93841c9390800290611ca1565b509250929050565b600082611cee5750600161164b565b81611cfb5750600061164b565b8160018114611d115760028114611d1b57611d37565b600191505061164b565b60ff841115611d2c57611d2c611b50565b50506001821b61164b565b5060208310610133831016604e8410600b8410161715611d5a575081810a61164b565b611d648383611c9c565b8060001904821115611d7857611d78611b50565b029392505050565b60006119df8383611cdf565b6000816000190483118215151615611da657611da6611b50565b500290565b634e487b7160e01b600052601260045260246000fd5b600082611dd057611dd0611dab565b500690565b600060018201611de757611de7611b50565b5060010190565b600082821015611e0057611e00611b50565b500390565b634e487b7160e01b600052603260045260246000fd5b600082611e2a57611e2a611dab565b500490565b60005b83811015611e4a578181015183820152602001611e32565b83811115611e59576000848401525b50505050565b60008151808452611e77816020860160208601611e2f565b601f01601f19169290920160200192915050565b60018060a01b03841681528260208201526060604082015260006114cd6060830184611e5f565b600060208284031215611ec457600080fd5b815180151581146119df57600080fd5b60008251611ee6818460208701611e2f565b9190910192915050565b6020815260006119df6020830184611e5f56fea26469706673582212202a54e6be414344aa7ea6dea945611478d1c25b6ba0b7c1cc1e4e868f7c6f2eb564736f6c634300080e0033",
    "linkReferences": {}
  },
  "methodIdentifiers": {
    "KEY_HASH()": "51dc86a5",
    "LINK_TOKEN()": "eedac3a6",
    "VRF_COORDINATOR()": "05f6a924",
    "betMap(bytes32)": "ed3b3723",
    "bets(uint256)": "22af00fa",
    "betsLength()": "bbd2e01e",
    "chainlinkFee()": "7ac98be1",
    "cumulativeDeposit()": "0c531f27",
    "cumulativeWithdrawal()": "72318cf9",
    "getBalanceETH()": "acd1f254",
    "getBalanceLINK()": "d1cc24ec",
    "houseEdgePercent()": "1f9d3a2b",
    "lockedInBets()": "df88126f",
    "maxBetAmount()": "cab11d5d",
    "maxProfit()": "b539cd55",
    "minBetAmount()": "fa968eea",
    "owner()": "8da5cb5b",
    "paused()": "5c975abb",
    "placeBet(uint256,uint256)": "4afe62b5",
    "rawFulfillRandomness(bytes32,uint256)": "94985ddd",
    "refundBet(uint256)": "e1fdb4b4",
    "renounceOwnership()": "715018a6",
    "setChainlinkFee(uint256)": "a284673f",
    "setHouseEdge(uint256)": "6cd0f102",
    "setMaxBetAmount(uint256)": "7cfbc7a5",
    "setMaxProfit(uint256)": "fbd668a9",
    "setMinBetAmount(uint256)": "6c188593",
    "setWealthTaxIncrementPercent(uint256)": "bd7fd78d",
    "setWealthTaxIncrementThreshold(uint256)": "af3dc07f",
    "transferOwnership(address)": "f2fde38b",
    "wealthTaxIncrementPercent()": "386d5fe6",
    "wealthTaxIncrementThreshold()": "70d8c578",
    "withdrawAll()": "853828b6",
    "withdrawFunds(address,uint256)": "c1075329",
    "withdrawTokens(address)": "49df728c"
  },
  "id": 10
}