{
  "abi": [
    {
      "inputs": [
        {
          "internalType": "address",
          "name": "_linkAddress",
          "type": "address"
        },
        {
          "internalType": "address",
          "name": "_wrapperAddress",
          "type": "address"
        }
      ],
      "stateMutability": "nonpayable",
      "type": "constructor"
    },
    {
      "inputs": [],
      "name": "BetAlreadySettled",
      "type": "error"
    },
    {
      "inputs": [],
      "name": "BetExceedsModulo",
      "type": "error"
    },
    {
      "inputs": [
        {
          "internalType": "uint256",
          "name": "amount",
          "type": "uint256"
        }
      ],
      "name": "BetMaskOutOfRange",
      "type": "error"
    },
    {
      "inputs": [],
      "name": "BetNotExist",
      "type": "error"
    },
    {
      "inputs": [
        {
          "internalType": "uint256",
          "name": "amount",
          "type": "uint256"
        }
      ],
      "name": "BetOutOfRange",
      "type": "error"
    },
    {
      "inputs": [],
      "name": "InsaneMaxBet",
      "type": "error"
    },
    {
      "inputs": [],
      "name": "InsaneMaxProfit",
      "type": "error"
    },
    {
      "inputs": [
        {
          "internalType": "uint256",
          "name": "amount",
          "type": "uint256"
        }
      ],
      "name": "ModuloOutOfRange",
      "type": "error"
    },
    {
      "inputs": [],
      "name": "NotEnoughLinkToken",
      "type": "error"
    },
    {
      "inputs": [],
      "name": "ProbablityOutOfRange",
      "type": "error"
    },
    {
      "inputs": [],
      "name": "RefundPeriodNotElapsed",
      "type": "error"
    },
    {
      "inputs": [],
      "name": "WinExceedsCurrentFunds",
      "type": "error"
    },
    {
      "inputs": [],
      "name": "WinExceedsMaxProfit",
      "type": "error"
    },
    {
      "inputs": [],
      "name": "WithdrawExceedsBalance",
      "type": "error"
    },
    {
      "inputs": [],
      "name": "WithdrawExceedsFreeBalance",
      "type": "error"
    },
    {
      "anonymous": false,
      "inputs": [
        {
          "indexed": true,
          "internalType": "uint256",
          "name": "betId",
          "type": "uint256"
        },
        {
          "indexed": true,
          "internalType": "address",
          "name": "gambler",
          "type": "address"
        }
      ],
      "name": "BetPlaced",
      "type": "event"
    },
    {
      "anonymous": false,
      "inputs": [
        {
          "indexed": true,
          "internalType": "uint256",
          "name": "betId",
          "type": "uint256"
        },
        {
          "indexed": true,
          "internalType": "address",
          "name": "gambler",
          "type": "address"
        }
      ],
      "name": "BetRefunded",
      "type": "event"
    },
    {
      "anonymous": false,
      "inputs": [
        {
          "indexed": true,
          "internalType": "uint256",
          "name": "betId",
          "type": "uint256"
        },
        {
          "indexed": true,
          "internalType": "address",
          "name": "gambler",
          "type": "address"
        },
        {
          "indexed": false,
          "internalType": "uint256",
          "name": "amount",
          "type": "uint256"
        },
        {
          "indexed": true,
          "internalType": "uint8",
          "name": "modulo",
          "type": "uint8"
        },
        {
          "indexed": false,
          "internalType": "uint8",
          "name": "rollUnder",
          "type": "uint8"
        },
        {
          "indexed": false,
          "internalType": "uint40",
          "name": "mask",
          "type": "uint40"
        },
        {
          "indexed": false,
          "internalType": "uint256",
          "name": "outcome",
          "type": "uint256"
        },
        {
          "indexed": false,
          "internalType": "uint256",
          "name": "winAmount",
          "type": "uint256"
        }
      ],
      "name": "BetSettled",
      "type": "event"
    },
    {
      "anonymous": false,
      "inputs": [
        {
          "indexed": true,
          "internalType": "address",
          "name": "previousOwner",
          "type": "address"
        },
        {
          "indexed": true,
          "internalType": "address",
          "name": "newOwner",
          "type": "address"
        }
      ],
      "name": "OwnershipTransferred",
      "type": "event"
    },
    {
      "anonymous": false,
      "inputs": [
        {
          "indexed": false,
          "internalType": "address",
          "name": "account",
          "type": "address"
        }
      ],
      "name": "Paused",
      "type": "event"
    },
    {
      "anonymous": false,
      "inputs": [
        {
          "indexed": false,
          "internalType": "address",
          "name": "account",
          "type": "address"
        }
      ],
      "name": "Unpaused",
      "type": "event"
    },
    {
      "stateMutability": "payable",
      "type": "fallback"
    },
    {
      "inputs": [],
      "name": "_betAmountCumulativeDeposit",
      "outputs": [
        {
          "internalType": "uint256",
          "name": "",
          "type": "uint256"
        }
      ],
      "stateMutability": "view",
      "type": "function"
    },
    {
      "inputs": [],
      "name": "_betAmountCumulativeWithdrawal",
      "outputs": [
        {
          "internalType": "uint256",
          "name": "",
          "type": "uint256"
        }
      ],
      "stateMutability": "view",
      "type": "function"
    },
    {
      "inputs": [],
      "name": "_betAmountLockIn",
      "outputs": [
        {
          "internalType": "uint256",
          "name": "",
          "type": "uint256"
        }
      ],
      "stateMutability": "view",
      "type": "function"
    },
    {
      "inputs": [
        {
          "internalType": "uint256",
          "name": "",
          "type": "uint256"
        }
      ],
      "name": "_bets",
      "outputs": [
        {
          "internalType": "uint256",
          "name": "amount",
          "type": "uint256"
        },
        {
          "internalType": "uint8",
          "name": "modulo",
          "type": "uint8"
        },
        {
          "internalType": "uint8",
          "name": "rollUnder",
          "type": "uint8"
        },
        {
          "internalType": "uint40",
          "name": "mask",
          "type": "uint40"
        },
        {
          "internalType": "uint256",
          "name": "placeBlockNumber",
          "type": "uint256"
        },
        {
          "internalType": "address payable",
          "name": "gambler",
          "type": "address"
        },
        {
          "internalType": "bool",
          "name": "isSettled",
          "type": "bool"
        },
        {
          "internalType": "uint256",
          "name": "outcome",
          "type": "uint256"
        },
        {
          "internalType": "uint256",
          "name": "winAmount",
          "type": "uint256"
        },
        {
          "internalType": "uint256",
          "name": "randomNumber",
          "type": "uint256"
        }
      ],
      "stateMutability": "view",
      "type": "function"
    },
    {
      "inputs": [
        {
          "internalType": "uint256",
          "name": "",
          "type": "uint256"
        }
      ],
      "name": "_betsByRequestId",
      "outputs": [
        {
          "internalType": "uint256",
          "name": "",
          "type": "uint256"
        }
      ],
      "stateMutability": "view",
      "type": "function"
    },
    {
      "inputs": [],
      "name": "_chainlinkFee",
      "outputs": [
        {
          "internalType": "uint256",
          "name": "",
          "type": "uint256"
        }
      ],
      "stateMutability": "view",
      "type": "function"
    },
    {
      "inputs": [],
      "name": "_houseEdgePercent",
      "outputs": [
        {
          "internalType": "uint256",
          "name": "",
          "type": "uint256"
        }
      ],
      "stateMutability": "view",
      "type": "function"
    },
    {
      "inputs": [],
      "name": "_maxBetAmount",
      "outputs": [
        {
          "internalType": "uint256",
          "name": "",
          "type": "uint256"
        }
      ],
      "stateMutability": "view",
      "type": "function"
    },
    {
      "inputs": [],
      "name": "_maxProfit",
      "outputs": [
        {
          "internalType": "uint256",
          "name": "",
          "type": "uint256"
        }
      ],
      "stateMutability": "view",
      "type": "function"
    },
    {
      "inputs": [],
      "name": "_minBetAmount",
      "outputs": [
        {
          "internalType": "uint256",
          "name": "",
          "type": "uint256"
        }
      ],
      "stateMutability": "view",
      "type": "function"
    },
    {
      "inputs": [],
      "name": "_wealthTaxIncrementPercent",
      "outputs": [
        {
          "internalType": "uint256",
          "name": "",
          "type": "uint256"
        }
      ],
      "stateMutability": "view",
      "type": "function"
    },
    {
      "inputs": [],
      "name": "_wealthTaxIncrementThreshold",
      "outputs": [
        {
          "internalType": "uint256",
          "name": "",
          "type": "uint256"
        }
      ],
      "stateMutability": "view",
      "type": "function"
    },
    {
      "inputs": [],
      "name": "getBalanceETH",
      "outputs": [
        {
          "internalType": "uint256",
          "name": "",
          "type": "uint256"
        }
      ],
      "stateMutability": "view",
      "type": "function"
    },
    {
      "inputs": [],
      "name": "getBalanceLINK",
      "outputs": [
        {
          "internalType": "uint256",
          "name": "",
          "type": "uint256"
        }
      ],
      "stateMutability": "view",
      "type": "function"
    },
    {
      "inputs": [
        {
          "internalType": "uint256",
          "name": "betId",
          "type": "uint256"
        }
      ],
      "name": "getBet",
      "outputs": [
        {
          "internalType": "uint256",
          "name": "amount_",
          "type": "uint256"
        },
        {
          "internalType": "uint8",
          "name": "modulo_",
          "type": "uint8"
        },
        {
          "internalType": "uint8",
          "name": "rollUnder_",
          "type": "uint8"
        },
        {
          "internalType": "uint256",
          "name": "placeBlockNumber_",
          "type": "uint256"
        },
        {
          "internalType": "bool",
          "name": "isSettled_",
          "type": "bool"
        },
        {
          "internalType": "uint256",
          "name": "outcome_",
          "type": "uint256"
        },
        {
          "internalType": "uint256",
          "name": "winAmount_",
          "type": "uint256"
        }
      ],
      "stateMutability": "view",
      "type": "function"
    },
    {
      "inputs": [
        {
          "internalType": "uint256",
          "name": "amount",
          "type": "uint256"
        },
        {
          "internalType": "uint256",
          "name": "modulo",
          "type": "uint256"
        },
        {
          "internalType": "uint256",
          "name": "rollUnder",
          "type": "uint256"
        }
      ],
      "name": "getDiceWinAmount",
      "outputs": [
        {
          "internalType": "uint256",
          "name": "winAmount",
          "type": "uint256"
        }
      ],
      "stateMutability": "view",
      "type": "function"
    },
    {
      "inputs": [
        {
          "internalType": "address",
          "name": "user",
          "type": "address"
        }
      ],
      "name": "getOpenBetsByUser",
      "outputs": [
        {
          "internalType": "uint256[]",
          "name": "",
          "type": "uint256[]"
        }
      ],
      "stateMutability": "view",
      "type": "function"
    },
    {
      "inputs": [
        {
          "internalType": "uint256",
          "name": "amount",
          "type": "uint256"
        }
      ],
      "name": "getWealthTax",
      "outputs": [
        {
          "internalType": "uint256",
          "name": "wealthTax",
          "type": "uint256"
        }
      ],
      "stateMutability": "view",
      "type": "function"
    },
    {
      "inputs": [],
      "name": "owner",
      "outputs": [
        {
          "internalType": "address",
          "name": "",
          "type": "address"
        }
      ],
      "stateMutability": "view",
      "type": "function"
    },
    {
      "inputs": [],
      "name": "paused",
      "outputs": [
        {
          "internalType": "bool",
          "name": "",
          "type": "bool"
        }
      ],
      "stateMutability": "view",
      "type": "function"
    },
    {
      "inputs": [
        {
          "internalType": "uint256",
          "name": "betMask",
          "type": "uint256"
        },
        {
          "internalType": "uint256",
          "name": "modulo",
          "type": "uint256"
        }
      ],
      "name": "placeBet",
      "outputs": [],
      "stateMutability": "payable",
      "type": "function"
    },
    {
      "inputs": [
        {
          "internalType": "uint256",
          "name": "_requestId",
          "type": "uint256"
        },
        {
          "internalType": "uint256[]",
          "name": "_randomWords",
          "type": "uint256[]"
        }
      ],
      "name": "rawFulfillRandomWords",
      "outputs": [],
      "stateMutability": "nonpayable",
      "type": "function"
    },
    {
      "inputs": [
        {
          "internalType": "uint256",
          "name": "betId",
          "type": "uint256"
        }
      ],
      "name": "refundBet",
      "outputs": [],
      "stateMutability": "payable",
      "type": "function"
    },
    {
      "inputs": [],
      "name": "renounceOwnership",
      "outputs": [],
      "stateMutability": "nonpayable",
      "type": "function"
    },
    {
      "inputs": [
        {
          "internalType": "uint256",
          "name": "houseEdgePercent",
          "type": "uint256"
        }
      ],
      "name": "setHouseEdge",
      "outputs": [],
      "stateMutability": "nonpayable",
      "type": "function"
    },
    {
      "inputs": [
        {
          "internalType": "uint256",
          "name": "maxBetAmount",
          "type": "uint256"
        }
      ],
      "name": "setMaxBetAmount",
      "outputs": [],
      "stateMutability": "nonpayable",
      "type": "function"
    },
    {
      "inputs": [
        {
          "internalType": "uint256",
          "name": "maxProfit",
          "type": "uint256"
        }
      ],
      "name": "setMaxProfit",
      "outputs": [],
      "stateMutability": "nonpayable",
      "type": "function"
    },
    {
      "inputs": [
        {
          "internalType": "uint256",
          "name": "minBetAmount",
          "type": "uint256"
        }
      ],
      "name": "setMinBetAmount",
      "outputs": [],
      "stateMutability": "nonpayable",
      "type": "function"
    },
    {
      "inputs": [
        {
          "internalType": "uint256",
          "name": "wealthTaxIncrementPercent",
          "type": "uint256"
        }
      ],
      "name": "setWealthTaxIncrementPercent",
      "outputs": [],
      "stateMutability": "nonpayable",
      "type": "function"
    },
    {
      "inputs": [
        {
          "internalType": "uint256",
          "name": "wealthTaxIncrementThreshold",
          "type": "uint256"
        }
      ],
      "name": "setWealthTaxIncrementThreshold",
      "outputs": [],
      "stateMutability": "nonpayable",
      "type": "function"
    },
    {
      "inputs": [
        {
          "internalType": "address",
          "name": "newOwner",
          "type": "address"
        }
      ],
      "name": "transferOwnership",
      "outputs": [],
      "stateMutability": "nonpayable",
      "type": "function"
    },
    {
      "inputs": [],
      "name": "withdrawAll",
      "outputs": [],
      "stateMutability": "nonpayable",
      "type": "function"
    },
    {
      "inputs": [
        {
          "internalType": "address payable",
          "name": "beneficiary",
          "type": "address"
        },
        {
          "internalType": "uint256",
          "name": "withdrawAmount",
          "type": "uint256"
        }
      ],
      "name": "withdrawFunds",
      "outputs": [],
      "stateMutability": "nonpayable",
      "type": "function"
    },
    {
      "inputs": [
        {
          "internalType": "address",
          "name": "tokenAddress",
          "type": "address"
        }
      ],
      "name": "withdrawTokens",
      "outputs": [],
      "stateMutability": "nonpayable",
      "type": "function"
    },
    {
      "stateMutability": "payable",
      "type": "receive"
    }
  ],
  "bytecode": {
    "object": "0x60c060405260028054610100600160581b03191667010003000186a00017905567016345785d8a00006003556001600481905568a2a15d09519be00000600581905560069190915566038d7ea4c6800060075568056bc75e2d631000006008556009553480156200006f57600080fd5b506040516200246c3803806200246c833981016040819052620000929162000133565b6001600160a01b03828116608052811660a052620000b033620000c6565b5050600180556002805460ff191690556200016b565b600080546001600160a01b038381166001600160a01b0319831681178455604051919092169283917f8be0079c531659141344cd1fd0a4f28419497f9722a3daafe3b4186f6b6457e09190a35050565b80516001600160a01b03811681146200012e57600080fd5b919050565b600080604083850312156200014757600080fd5b620001528362000116565b9150620001626020840162000116565b90509250929050565b60805160a0516122b1620001bb600039600081816107f401528181611796015261189f015260008181610a190152818161105c015281816110b00152818161133f015261176c01526122b16000f3fe6080604052600436106101fd5760003560e01c8063715018a61161010d578063bd7fd78d116100a0578063f1dcee131161006f578063f1dcee13146105ad578063f2fde38b146105c3578063f5db18a9146105e3578063fbd668a914610665578063fea4ae9d146106855761021c565b8063bd7fd78d14610545578063c107532914610565578063d1cc24ec14610585578063e1fdb4b41461059a5761021c565b80639a88de7a116100dc5780639a88de7a146104cf578063acd1f254146104e5578063ad6cd79f146104f8578063af3dc07f146105255761021c565b8063715018a61461045d5780637cfbc7a514610472578063853828b6146104925780638da5cb5b146104a75761021c565b8063340d899a1161019057806356e02c6b1161015f57806356e02c6b146103ce5780635c975abb146103e45780636954f390146104075780636c1885931461041d5780636cd0f1021461043d5761021c565b8063340d899a1461036f57806349df728c146103855780634afe62b5146103a557806352cf46e0146103b85761021c565b80631fe543e3116101cc5780631fe543e3146102f7578063216c2f991461031957806332328adb1461033957806333d2cea21461034f5761021c565b8063061e494f1461022e5780630d3148c314610290578063119e783d146102cb57806316280f81146102e15761021c565b3661021c5734600e60008282546102149190611da7565b925050819055005b34600e60008282546102149190611da7565b34801561023a57600080fd5b5061024e610249366004611dbf565b61069b565b6040805197885260ff9687166020890152949095169386019390935260608501919091521515608084015260a083015260c082015260e0015b60405180910390f35b34801561029c57600080fd5b506102bd6102ab366004611dbf565b600b6020526000908152604090205481565b604051908152602001610287565b3480156102d757600080fd5b506102bd60075481565b3480156102ed57600080fd5b506102bd60085481565b34801561030357600080fd5b50610317610312366004611dee565b6107e9565b005b34801561032557600080fd5b506102bd610334366004611dbf565b610874565b34801561034557600080fd5b506102bd600d5481565b34801561035b57600080fd5b506102bd61036a366004611eb8565b610897565b34801561037b57600080fd5b506102bd60035481565b34801561039157600080fd5b506103176103a0366004611ef9565b61091c565b6103176103b3366004611f16565b6109d7565b3480156103c457600080fd5b506102bd60055481565b3480156103da57600080fd5b506102bd60065481565b3480156103f057600080fd5b5060025460ff166040519015158152602001610287565b34801561041357600080fd5b506102bd600e5481565b34801561042957600080fd5b50610317610438366004611dbf565b610eea565b34801561044957600080fd5b50610317610458366004611dbf565b610f19565b34801561046957600080fd5b50610317610f48565b34801561047e57600080fd5b5061031761048d366004611dbf565b610f7e565b34801561049e57600080fd5b50610317610fd9565b3480156104b357600080fd5b506000546040516001600160a01b039091168152602001610287565b3480156104db57600080fd5b506102bd600f5481565b3480156104f157600080fd5b50476102bd565b34801561050457600080fd5b50610518610513366004611ef9565b611192565b6040516102879190611f38565b34801561053157600080fd5b50610317610540366004611dbf565b6111fe565b34801561055157600080fd5b50610317610560366004611dbf565b61122d565b34801561057157600080fd5b50610317610580366004611f7c565b61125c565b34801561059157600080fd5b506102bd611327565b6103176105a8366004611dbf565b6113b7565b3480156105b957600080fd5b506102bd60095481565b3480156105cf57600080fd5b506103176105de366004611ef9565b61155d565b3480156105ef57600080fd5b506106036105fe366004611dbf565b6115f5565b604080519a8b5260ff998a1660208c0152979098169689019690965264ffffffffff94909416606088015260808701929092526001600160a01b031660a0860152151560c085015260e084015261010083015261012082015261014001610287565b34801561067157600080fd5b50610317610680366004611dbf565b611670565b34801561069157600080fd5b506102bd60045481565b6000806000806000806000600a88815481106106b9576106b9611fa8565b9060005260206000209060070201600001549650600a88815481106106e0576106e0611fa8565b906000526020600020906007020160010160009054906101000a900460ff169550600a888154811061071457610714611fa8565b906000526020600020906007020160010160019054906101000a900460ff169450600a888154811061074857610748611fa8565b9060005260206000209060070201600201549350600a888154811061076f5761076f611fa8565b906000526020600020906007020160030160149054906101000a900460ff169250600a88815481106107a3576107a3611fa8565b9060005260206000209060070201600401549150600a88815481106107ca576107ca611fa8565b9060005260206000209060070201600501549050919395979092949650565b336001600160a01b037f000000000000000000000000000000000000000000000000000000000000000016146108665760405162461bcd60e51b815260206004820152601f60248201527f6f6e6c792056524620563220777261707065722063616e2066756c66696c6c0060448201526064015b60405180910390fd5b61087082826116cb565b5050565b6000600654600554836108879190611fd4565b6108919190611fe8565b92915050565b60008115806108a557508183105b156108c3576040516303278db560e21b815260040160405180910390fd5b600060646108d086610874565b6004546108dd9190611da7565b6108e79087611fe8565b6108f19190611fd4565b905082846108ff8388612007565b6109099190611fe8565b6109139190611fd4565b95945050505050565b6000546001600160a01b031633146109465760405162461bcd60e51b815260040161085d9061201e565b6109d461095b6000546001600160a01b031690565b6040516370a0823160e01b81523060048201526001600160a01b038416906370a0823190602401602060405180830381865afa15801561099f573d6000803e3d6000fd5b505050506040513d601f19601f820116820180604052508101906109c39190612053565b6001600160a01b03841691906116ef565b50565b6002600154036109f95760405162461bcd60e51b815260040161085d9061206c565b60026001556003546040516370a0823160e01b81523060048201523491907f00000000000000000000000000000000000000000000000000000000000000006001600160a01b0316906370a0823190602401602060405180830381865afa158015610a68573d6000803e3d6000fd5b505050506040513d601f19601f82011682018060405250810190610a8c9190612053565b1015610aab576040516364b72d6760e11b815260040160405180910390fd5b600754811080610abc575080600854105b15610add576040516349d7eaf760e11b81526004810182905260240161085d565b600182111580610aed5750816064105b15610b0e5760405163505e567560e01b81526004810183905260240161085d565b821580610b25575082610b2360286002612187565b105b15610b465760405163396c87a760e01b81526004810184905260240161085d565b60008060288411610bac57603f7e01041041041041041041041041041041041041041041041041041041041041610b9779200000000010000000000800000000040000000002000000000188611fe8565b16610ba29190612193565b9150849050610bda565b841580610bb857508484105b15610bd657604051631e51c6bb60e21b815260040160405180910390fd5b8491505b6000610be7848685610897565b90508060095485610bf89190611da7565b1015610c1757604051633bd9f7af60e11b815260040160405180910390fd5b80600d54610c259190611da7565b471015610c4557604051633886600b60e01b815260040160405180910390fd5b80600d6000828254610c579190611da7565b9091555050604080516101408101825285815260ff8088166020830190815286821693830193845264ffffffffff8087166060850190815243608086019081523360a08701908152600060c0880181815260e08901828152610100808b018481526101208c01858152600a80546001810182559087529c516007909d027fc65a7bb8d6351c1cf70c95a316cc6a92839c986682d98bc35f958f4883f9d2a881019d909d5599517fc65a7bb8d6351c1cf70c95a316cc6a92839c986682d98bc35f958f4883f9d2a98d0180549e519951909a16620100000266ffffffffff000019998d16840261ffff19909f1691909c16179c909c17969096169890981790955591517fc65a7bb8d6351c1cf70c95a316cc6a92839c986682d98bc35f958f4883f9d2aa880155517fc65a7bb8d6351c1cf70c95a316cc6a92839c986682d98bc35f958f4883f9d2ab8701805494511515600160a01b026001600160a81b03199095166001600160a01b0392909216919091179390931790925592517fc65a7bb8d6351c1cf70c95a316cc6a92839c986682d98bc35f958f4883f9d2ac85015593517fc65a7bb8d6351c1cf70c95a316cc6a92839c986682d98bc35f958f4883f9d2ad840155517fc65a7bb8d6351c1cf70c95a316cc6a92839c986682d98bc35f958f4883f9d2ae90920191909155600254610e779163ffffffff90820481169161ffff650100000000008204169167010000000000000090910416611746565b600a80546000838152600b6020908152604080832084905533808452600c835281842080546001810182559085529284209092019390935592549151939450919290917f71db8f0b94a6ae898ff1583920da121c8f18ea26ad96353276843685325262e191a35050600180555050505050565b6000546001600160a01b03163314610f145760405162461bcd60e51b815260040161085d9061201e565b600755565b6000546001600160a01b03163314610f435760405162461bcd60e51b815260040161085d9061201e565b600455565b6000546001600160a01b03163314610f725760405162461bcd60e51b815260040161085d9061201e565b610f7c6000611929565b565b6000546001600160a01b03163314610fa85760405162461bcd60e51b815260040161085d9061201e565b806a0422ca8b0a00a4250000001015610fd45760405163c7544a2d60e01b815260040160405180910390fd5b600855565b6000546001600160a01b031633146110035760405162461bcd60e51b815260040161085d9061201e565b6000600d54476110139190612007565b905080600f60008282546110279190611da7565b9091555050604051339082156108fc029083906000818181858888f19350505050158015611059573d6000803e3d6000fd5b507f00000000000000000000000000000000000000000000000000000000000000006001600160a01b031663a9059cbb61109b6000546001600160a01b031690565b6040516370a0823160e01b81523060048201527f00000000000000000000000000000000000000000000000000000000000000006001600160a01b0316906370a0823190602401602060405180830381865afa1580156110ff573d6000803e3d6000fd5b505050506040513d601f19601f820116820180604052508101906111239190612053565b6040516001600160e01b031960e085901b1681526001600160a01b03909216600483015260248201526044016020604051808303816000875af115801561116e573d6000803e3d6000fd5b505050506040513d601f19601f8201168201806040525081019061087091906121a7565b6001600160a01b0381166000908152600c60209081526040918290208054835181840281018401909452808452606093928301828280156111f257602002820191906000526020600020905b8154815260200190600101908083116111de575b50505050509050919050565b6000546001600160a01b031633146112285760405162461bcd60e51b815260040161085d9061201e565b600555565b6000546001600160a01b031633146112575760405162461bcd60e51b815260040161085d9061201e565b600655565b6000546001600160a01b031633146112865760405162461bcd60e51b815260040161085d9061201e565b804710156112a757604051635333556f60e11b815260040160405180910390fd5b80600d54476112b69190612007565b10156112d557604051631b7cad5760e21b815260040160405180910390fd5b6040516001600160a01b0383169082156108fc029083906000818181858888f1935050505015801561130b573d6000803e3d6000fd5b5080600f600082825461131e9190611da7565b90915550505050565b6040516370a0823160e01b81523060048201526000907f00000000000000000000000000000000000000000000000000000000000000006001600160a01b0316906370a0823190602401602060405180830381865afa15801561138e573d6000803e3d6000fd5b505050506040513d601f19601f820116820180604052508101906113b29190612053565b905090565b6002600154036113d95760405162461bcd60e51b815260040161085d9061206c565b60026001819055506000600a82815481106113f6576113f6611fa8565b90600052602060002090600702019050806000015460000361142b57604051635c21ed8d60e01b815260040160405180910390fd5b6003810154600160a01b900460ff1615611458576040516305d09e5f60e01b815260040160405180910390fd5b60028101546114699061a8c0611da7565b431015611489576040516364788a2f60e01b815260040160405180910390fd5b805460018201546000916114a89160ff80821691610100900416610897565b905080600d60008282546114bc9190612007565b909155505060038201805460ff60a01b198116600160a01b179091558254600584018190556040516001600160a01b039092169181156108fc0291906000818181858888f19350505050158015611517573d6000803e3d6000fd5b5060038201546040516001600160a01b039091169084907f82ed3ad28d47d7fc600c710a2000a6940ee285829493f6a21969b1ccad85ec7090600090a350506001805550565b6000546001600160a01b031633146115875760405162461bcd60e51b815260040161085d9061201e565b6001600160a01b0381166115ec5760405162461bcd60e51b815260206004820152602660248201527f4f776e61626c653a206e6577206f776e657220697320746865207a65726f206160448201526564647265737360d01b606482015260840161085d565b6109d481611929565b600a818154811061160557600080fd5b6000918252602090912060079091020180546001820154600283015460038401546004850154600586015460069096015494965060ff8085169661010086048216966201000090960464ffffffffff16956001600160a01b03851694600160a01b900490921692918a565b6000546001600160a01b0316331461169a5760405162461bcd60e51b815260040161085d9061201e565b806a0422ca8b0a00a42500000010156116c657604051635221461f60e01b815260040160405180910390fd5b600955565b61087082826000815181106116e2576116e2611fa8565b6020026020010151611979565b604080516001600160a01b038416602482015260448082018490528251808303909101815260649091019091526020810180516001600160e01b031663a9059cbb60e01b179052611741908490611bab565b505050565b6040516310c1b4d560e21b815263ffffffff841660048201526000906001600160a01b037f0000000000000000000000000000000000000000000000000000000000000000811691634000aea0917f00000000000000000000000000000000000000000000000000000000000000009190821690634306d35490602401602060405180830381865afa1580156117e0573d6000803e3d6000fd5b505050506040513d601f19601f820116820180604052508101906118049190612053565b6040805163ffffffff808b16602083015261ffff8a169282019290925290871660608201526080016040516020818303038152906040526040518463ffffffff1660e01b815260040161185993929190612225565b6020604051808303816000875af1158015611878573d6000803e3d6000fd5b505050506040513d601f19601f8201168201806040525081019061189c91906121a7565b507f00000000000000000000000000000000000000000000000000000000000000006001600160a01b031663fc2a88c36040518163ffffffff1660e01b8152600401602060405180830381865afa1580156118fb573d6000803e3d6000fd5b505050506040513d601f19601f8201168201806040525081019061191f9190612053565b90505b9392505050565b600080546001600160a01b038381166001600160a01b0319831681178455604051919092169283917f8be0079c531659141344cd1fd0a4f28419497f9722a3daafe3b4186f6b6457e09190a35050565b60026001540361199b5760405162461bcd60e51b815260040161085d9061206c565b60026001556000828152600b6020526040812054600a8054919291839081106119c6576119c6611fa8565b6000918252602082206007909102018054909250908190036119fb57604051635c21ed8d60e01b815260040160405180910390fd5b6003820154600160a01b900460ff1615611a28576040516305d09e5f60e01b815260040160405180910390fd5b6001820154600383015460ff80831692610100900416906001600160a01b03166000611a548489612193565b90506000611a63868686610897565b9050600060288611611aa457600188015462010000900464ffffffffff16611a8c846002612187565b1615611a99575080611aa4565b84831015611aa45750805b60018801546040805189815260ff88811660208301526201000090930464ffffffffff16918101919091526060810185905260808101839052908716906001600160a01b038616908b907f6cff91e6d6b58d75f3dabb17af3f33987150949dd8c24c48bf0d8d685f474ff99060a00160405180910390a481600d6000828254611b2d9190612007565b909155505060038801805460ff60a01b1916600160a01b17905560058801819055600688018a9055600488018390558015611b9a576040516001600160a01b0385169082156108fc029083906000818181858888f19350505050158015611b98573d6000803e3d6000fd5b505b505060018055505050505050505050565b6000611c00826040518060400160405280602081526020017f5361666545524332303a206c6f772d6c6576656c2063616c6c206661696c6564815250856001600160a01b0316611c7d9092919063ffffffff16565b8051909150156117415780806020019051810190611c1e91906121a7565b6117415760405162461bcd60e51b815260206004820152602a60248201527f5361666545524332303a204552433230206f7065726174696f6e20646964206e6044820152691bdd081cdd58d8d9595960b21b606482015260840161085d565b606061191f8484600085856001600160a01b0385163b611cdf5760405162461bcd60e51b815260206004820152601d60248201527f416464726573733a2063616c6c20746f206e6f6e2d636f6e7472616374000000604482015260640161085d565b600080866001600160a01b03168587604051611cfb919061224c565b60006040518083038185875af1925050503d8060008114611d38576040519150601f19603f3d011682016040523d82523d6000602084013e611d3d565b606091505b5091509150611d4d828286611d58565b979650505050505050565b60608315611d67575081611922565b825115611d775782518084602001fd5b8160405162461bcd60e51b815260040161085d9190612268565b634e487b7160e01b600052601160045260246000fd5b60008219821115611dba57611dba611d91565b500190565b600060208284031215611dd157600080fd5b5035919050565b634e487b7160e01b600052604160045260246000fd5b60008060408385031215611e0157600080fd5b8235915060208084013567ffffffffffffffff80821115611e2157600080fd5b818601915086601f830112611e3557600080fd5b813581811115611e4757611e47611dd8565b8060051b604051601f19603f83011681018181108582111715611e6c57611e6c611dd8565b604052918252848201925083810185019189831115611e8a57600080fd5b938501935b82851015611ea857843584529385019392850192611e8f565b8096505050505050509250929050565b600080600060608486031215611ecd57600080fd5b505081359360208301359350604090920135919050565b6001600160a01b03811681146109d457600080fd5b600060208284031215611f0b57600080fd5b813561192281611ee4565b60008060408385031215611f2957600080fd5b50508035926020909101359150565b6020808252825182820181905260009190848201906040850190845b81811015611f7057835183529284019291840191600101611f54565b50909695505050505050565b60008060408385031215611f8f57600080fd5b8235611f9a81611ee4565b946020939093013593505050565b634e487b7160e01b600052603260045260246000fd5b634e487b7160e01b600052601260045260246000fd5b600082611fe357611fe3611fbe565b500490565b600081600019048311821515161561200257612002611d91565b500290565b60008282101561201957612019611d91565b500390565b6020808252818101527f4f776e61626c653a2063616c6c6572206973206e6f7420746865206f776e6572604082015260600190565b60006020828403121561206557600080fd5b5051919050565b6020808252601f908201527f5265656e7472616e637947756172643a207265656e7472616e742063616c6c00604082015260600190565b600181815b808511156120de5781600019048211156120c4576120c4611d91565b808516156120d157918102915b93841c93908002906120a8565b509250929050565b6000826120f557506001610891565b8161210257506000610891565b816001811461211857600281146121225761213e565b6001915050610891565b60ff84111561213357612133611d91565b50506001821b610891565b5060208310610133831016604e8410600b8410161715612161575081810a610891565b61216b83836120a3565b806000190482111561217f5761217f611d91565b029392505050565b600061192283836120e6565b6000826121a2576121a2611fbe565b500690565b6000602082840312156121b957600080fd5b8151801515811461192257600080fd5b60005b838110156121e45781810151838201526020016121cc565b838111156121f3576000848401525b50505050565b600081518084526122118160208601602086016121c9565b601f01601f19169290920160200192915050565b60018060a01b038416815282602082015260606040820152600061091360608301846121f9565b6000825161225e8184602087016121c9565b9190910192915050565b60208152600061192260208301846121f956fea26469706673582212203c1239dc34752e48eba62e6cdbe2b2fd9f8eb57c1f4231fd27dbb106354d6f0464736f6c634300080e0033",
    "linkReferences": {}
  },
  "methodIdentifiers": {
    "_betAmountCumulativeDeposit()": "6954f390",
    "_betAmountCumulativeWithdrawal()": "9a88de7a",
    "_betAmountLockIn()": "32328adb",
    "_bets(uint256)": "f5db18a9",
    "_betsByRequestId(uint256)": "0d3148c3",
    "_chainlinkFee()": "340d899a",
    "_houseEdgePercent()": "fea4ae9d",
    "_maxBetAmount()": "16280f81",
    "_maxProfit()": "f1dcee13",
    "_minBetAmount()": "119e783d",
    "_wealthTaxIncrementPercent()": "56e02c6b",
    "_wealthTaxIncrementThreshold()": "52cf46e0",
    "getBalanceETH()": "acd1f254",
    "getBalanceLINK()": "d1cc24ec",
    "getBet(uint256)": "061e494f",
    "getDiceWinAmount(uint256,uint256,uint256)": "33d2cea2",
    "getOpenBetsByUser(address)": "ad6cd79f",
    "getWealthTax(uint256)": "216c2f99",
    "owner()": "8da5cb5b",
    "paused()": "5c975abb",
    "placeBet(uint256,uint256)": "4afe62b5",
    "rawFulfillRandomWords(uint256,uint256[])": "1fe543e3",
    "refundBet(uint256)": "e1fdb4b4",
    "renounceOwnership()": "715018a6",
    "setHouseEdge(uint256)": "6cd0f102",
    "setMaxBetAmount(uint256)": "7cfbc7a5",
    "setMaxProfit(uint256)": "fbd668a9",
    "setMinBetAmount(uint256)": "6c188593",
    "setWealthTaxIncrementPercent(uint256)": "bd7fd78d",
    "setWealthTaxIncrementThreshold(uint256)": "af3dc07f",
    "transferOwnership(address)": "f2fde38b",
    "withdrawAll()": "853828b6",
    "withdrawFunds(address,uint256)": "c1075329",
    "withdrawTokens(address)": "49df728c"
  },
  "id": 16
}