{
  "abi": [
    {
      "inputs": [],
      "stateMutability": "nonpayable",
      "type": "constructor"
    },
    {
      "inputs": [],
      "name": "BetAlreadySettled",
      "type": "error"
    },
    {
      "inputs": [],
      "name": "BetExceedsModulo",
      "type": "error"
    },
    {
      "inputs": [
        {
          "internalType": "uint256",
          "name": "amount",
          "type": "uint256"
        }
      ],
      "name": "BetMaskOutOfRange",
      "type": "error"
    },
    {
      "inputs": [],
      "name": "BetNotExist",
      "type": "error"
    },
    {
      "inputs": [
        {
          "internalType": "uint256",
          "name": "amount",
          "type": "uint256"
        }
      ],
      "name": "BetOutOfRange",
      "type": "error"
    },
    {
      "inputs": [],
      "name": "InsaneMaxBet",
      "type": "error"
    },
    {
      "inputs": [],
      "name": "InsaneMaxProfit",
      "type": "error"
    },
    {
      "inputs": [
        {
          "internalType": "uint256",
          "name": "amount",
          "type": "uint256"
        }
      ],
      "name": "ModuloOutOfRange",
      "type": "error"
    },
    {
      "inputs": [],
      "name": "NotEnoughLinkToken",
      "type": "error"
    },
    {
      "inputs": [],
      "name": "ProbablityOutOfRange",
      "type": "error"
    },
    {
      "inputs": [],
      "name": "RefundPeriodNotElapsed",
      "type": "error"
    },
    {
      "inputs": [],
      "name": "WinExceedsCurrentFunds",
      "type": "error"
    },
    {
      "inputs": [],
      "name": "WinExceedsMaxProfit",
      "type": "error"
    },
    {
      "inputs": [],
      "name": "WithdrawExceedsBalance",
      "type": "error"
    },
    {
      "inputs": [],
      "name": "WithdrawExceedsFreeBalance",
      "type": "error"
    },
    {
      "anonymous": false,
      "inputs": [
        {
          "indexed": true,
          "internalType": "uint256",
          "name": "betId",
          "type": "uint256"
        },
        {
          "indexed": true,
          "internalType": "address",
          "name": "gambler",
          "type": "address"
        }
      ],
      "name": "BetPlaced",
      "type": "event"
    },
    {
      "anonymous": false,
      "inputs": [
        {
          "indexed": true,
          "internalType": "uint256",
          "name": "betId",
          "type": "uint256"
        },
        {
          "indexed": true,
          "internalType": "address",
          "name": "gambler",
          "type": "address"
        }
      ],
      "name": "BetRefunded",
      "type": "event"
    },
    {
      "anonymous": false,
      "inputs": [
        {
          "indexed": true,
          "internalType": "uint256",
          "name": "betId",
          "type": "uint256"
        },
        {
          "indexed": true,
          "internalType": "address",
          "name": "gambler",
          "type": "address"
        },
        {
          "indexed": false,
          "internalType": "uint256",
          "name": "amount",
          "type": "uint256"
        },
        {
          "indexed": true,
          "internalType": "uint8",
          "name": "modulo",
          "type": "uint8"
        },
        {
          "indexed": false,
          "internalType": "uint8",
          "name": "rollUnder",
          "type": "uint8"
        },
        {
          "indexed": false,
          "internalType": "uint40",
          "name": "mask",
          "type": "uint40"
        },
        {
          "indexed": false,
          "internalType": "uint256",
          "name": "outcome",
          "type": "uint256"
        },
        {
          "indexed": false,
          "internalType": "uint256",
          "name": "winAmount",
          "type": "uint256"
        }
      ],
      "name": "BetSettled",
      "type": "event"
    },
    {
      "anonymous": false,
      "inputs": [
        {
          "indexed": true,
          "internalType": "address",
          "name": "previousOwner",
          "type": "address"
        },
        {
          "indexed": true,
          "internalType": "address",
          "name": "newOwner",
          "type": "address"
        }
      ],
      "name": "OwnershipTransferred",
      "type": "event"
    },
    {
      "anonymous": false,
      "inputs": [
        {
          "indexed": false,
          "internalType": "address",
          "name": "account",
          "type": "address"
        }
      ],
      "name": "Paused",
      "type": "event"
    },
    {
      "anonymous": false,
      "inputs": [
        {
          "indexed": false,
          "internalType": "address",
          "name": "account",
          "type": "address"
        }
      ],
      "name": "Unpaused",
      "type": "event"
    },
    {
      "stateMutability": "payable",
      "type": "fallback"
    },
    {
      "inputs": [
        {
          "internalType": "uint256",
          "name": "",
          "type": "uint256"
        }
      ],
      "name": "_betMap",
      "outputs": [
        {
          "internalType": "uint256",
          "name": "",
          "type": "uint256"
        }
      ],
      "stateMutability": "view",
      "type": "function"
    },
    {
      "inputs": [
        {
          "internalType": "uint256",
          "name": "",
          "type": "uint256"
        }
      ],
      "name": "_bets",
      "outputs": [
        {
          "internalType": "uint256",
          "name": "amount",
          "type": "uint256"
        },
        {
          "internalType": "uint8",
          "name": "modulo",
          "type": "uint8"
        },
        {
          "internalType": "uint8",
          "name": "rollUnder",
          "type": "uint8"
        },
        {
          "internalType": "uint40",
          "name": "mask",
          "type": "uint40"
        },
        {
          "internalType": "uint256",
          "name": "placeBlockNumber",
          "type": "uint256"
        },
        {
          "internalType": "address payable",
          "name": "gambler",
          "type": "address"
        },
        {
          "internalType": "bool",
          "name": "isSettled",
          "type": "bool"
        },
        {
          "internalType": "uint256",
          "name": "outcome",
          "type": "uint256"
        },
        {
          "internalType": "uint256",
          "name": "winAmount",
          "type": "uint256"
        },
        {
          "internalType": "uint256",
          "name": "randomNumber",
          "type": "uint256"
        }
      ],
      "stateMutability": "view",
      "type": "function"
    },
    {
      "inputs": [],
      "name": "_chainlinkFee",
      "outputs": [
        {
          "internalType": "uint256",
          "name": "",
          "type": "uint256"
        }
      ],
      "stateMutability": "view",
      "type": "function"
    },
    {
      "inputs": [],
      "name": "_cumulativeDeposit",
      "outputs": [
        {
          "internalType": "uint256",
          "name": "",
          "type": "uint256"
        }
      ],
      "stateMutability": "view",
      "type": "function"
    },
    {
      "inputs": [],
      "name": "_cumulativeWithdrawal",
      "outputs": [
        {
          "internalType": "uint256",
          "name": "",
          "type": "uint256"
        }
      ],
      "stateMutability": "view",
      "type": "function"
    },
    {
      "inputs": [],
      "name": "_houseEdgePercent",
      "outputs": [
        {
          "internalType": "uint256",
          "name": "",
          "type": "uint256"
        }
      ],
      "stateMutability": "view",
      "type": "function"
    },
    {
      "inputs": [],
      "name": "_lockedInBets",
      "outputs": [
        {
          "internalType": "uint256",
          "name": "",
          "type": "uint256"
        }
      ],
      "stateMutability": "view",
      "type": "function"
    },
    {
      "inputs": [],
      "name": "_maxBetAmount",
      "outputs": [
        {
          "internalType": "uint256",
          "name": "",
          "type": "uint256"
        }
      ],
      "stateMutability": "view",
      "type": "function"
    },
    {
      "inputs": [],
      "name": "_maxProfit",
      "outputs": [
        {
          "internalType": "uint256",
          "name": "",
          "type": "uint256"
        }
      ],
      "stateMutability": "view",
      "type": "function"
    },
    {
      "inputs": [],
      "name": "_minBetAmount",
      "outputs": [
        {
          "internalType": "uint256",
          "name": "",
          "type": "uint256"
        }
      ],
      "stateMutability": "view",
      "type": "function"
    },
    {
      "inputs": [],
      "name": "_wealthTaxIncrementPercent",
      "outputs": [
        {
          "internalType": "uint256",
          "name": "",
          "type": "uint256"
        }
      ],
      "stateMutability": "view",
      "type": "function"
    },
    {
      "inputs": [],
      "name": "_wealthTaxIncrementThreshold",
      "outputs": [
        {
          "internalType": "uint256",
          "name": "",
          "type": "uint256"
        }
      ],
      "stateMutability": "view",
      "type": "function"
    },
    {
      "inputs": [],
      "name": "getBalanceETH",
      "outputs": [
        {
          "internalType": "uint256",
          "name": "",
          "type": "uint256"
        }
      ],
      "stateMutability": "view",
      "type": "function"
    },
    {
      "inputs": [],
      "name": "getBalanceLINK",
      "outputs": [
        {
          "internalType": "uint256",
          "name": "",
          "type": "uint256"
        }
      ],
      "stateMutability": "view",
      "type": "function"
    },
    {
      "inputs": [
        {
          "internalType": "uint256",
          "name": "amount",
          "type": "uint256"
        },
        {
          "internalType": "uint256",
          "name": "modulo",
          "type": "uint256"
        },
        {
          "internalType": "uint256",
          "name": "rollUnder",
          "type": "uint256"
        }
      ],
      "name": "getDiceWinAmount",
      "outputs": [
        {
          "internalType": "uint256",
          "name": "winAmount",
          "type": "uint256"
        }
      ],
      "stateMutability": "view",
      "type": "function"
    },
    {
      "inputs": [
        {
          "internalType": "uint256",
          "name": "amount",
          "type": "uint256"
        }
      ],
      "name": "getWealthTax",
      "outputs": [
        {
          "internalType": "uint256",
          "name": "wealthTax",
          "type": "uint256"
        }
      ],
      "stateMutability": "view",
      "type": "function"
    },
    {
      "inputs": [],
      "name": "owner",
      "outputs": [
        {
          "internalType": "address",
          "name": "",
          "type": "address"
        }
      ],
      "stateMutability": "view",
      "type": "function"
    },
    {
      "inputs": [],
      "name": "paused",
      "outputs": [
        {
          "internalType": "bool",
          "name": "",
          "type": "bool"
        }
      ],
      "stateMutability": "view",
      "type": "function"
    },
    {
      "inputs": [
        {
          "internalType": "uint256",
          "name": "betMask",
          "type": "uint256"
        },
        {
          "internalType": "uint256",
          "name": "modulo",
          "type": "uint256"
        }
      ],
      "name": "placeBet",
      "outputs": [],
      "stateMutability": "payable",
      "type": "function"
    },
    {
      "inputs": [
        {
          "internalType": "uint256",
          "name": "_requestId",
          "type": "uint256"
        },
        {
          "internalType": "uint256[]",
          "name": "_randomWords",
          "type": "uint256[]"
        }
      ],
      "name": "rawFulfillRandomWords",
      "outputs": [],
      "stateMutability": "nonpayable",
      "type": "function"
    },
    {
      "inputs": [
        {
          "internalType": "uint256",
          "name": "betId",
          "type": "uint256"
        }
      ],
      "name": "refundBet",
      "outputs": [],
      "stateMutability": "payable",
      "type": "function"
    },
    {
      "inputs": [],
      "name": "renounceOwnership",
      "outputs": [],
      "stateMutability": "nonpayable",
      "type": "function"
    },
    {
      "inputs": [
        {
          "internalType": "uint256",
          "name": "__chainlinkFee",
          "type": "uint256"
        }
      ],
      "name": "setChainlinkFee",
      "outputs": [],
      "stateMutability": "nonpayable",
      "type": "function"
    },
    {
      "inputs": [
        {
          "internalType": "uint256",
          "name": "__houseEdgePercent",
          "type": "uint256"
        }
      ],
      "name": "setHouseEdge",
      "outputs": [],
      "stateMutability": "nonpayable",
      "type": "function"
    },
    {
      "inputs": [
        {
          "internalType": "uint256",
          "name": "__maxBetAmount",
          "type": "uint256"
        }
      ],
      "name": "setMaxBetAmount",
      "outputs": [],
      "stateMutability": "nonpayable",
      "type": "function"
    },
    {
      "inputs": [
        {
          "internalType": "uint256",
          "name": "__maxProfit",
          "type": "uint256"
        }
      ],
      "name": "setMaxProfit",
      "outputs": [],
      "stateMutability": "nonpayable",
      "type": "function"
    },
    {
      "inputs": [
        {
          "internalType": "uint256",
          "name": "__minBetAmount",
          "type": "uint256"
        }
      ],
      "name": "setMinBetAmount",
      "outputs": [],
      "stateMutability": "nonpayable",
      "type": "function"
    },
    {
      "inputs": [
        {
          "internalType": "uint256",
          "name": "__wealthTaxIncrementPercent",
          "type": "uint256"
        }
      ],
      "name": "setWealthTaxIncrementPercent",
      "outputs": [],
      "stateMutability": "nonpayable",
      "type": "function"
    },
    {
      "inputs": [
        {
          "internalType": "uint256",
          "name": "__wealthTaxIncrementThreshold",
          "type": "uint256"
        }
      ],
      "name": "setWealthTaxIncrementThreshold",
      "outputs": [],
      "stateMutability": "nonpayable",
      "type": "function"
    },
    {
      "inputs": [
        {
          "internalType": "address",
          "name": "newOwner",
          "type": "address"
        }
      ],
      "name": "transferOwnership",
      "outputs": [],
      "stateMutability": "nonpayable",
      "type": "function"
    },
    {
      "inputs": [],
      "name": "withdrawAll",
      "outputs": [],
      "stateMutability": "nonpayable",
      "type": "function"
    },
    {
      "inputs": [
        {
          "internalType": "address payable",
          "name": "beneficiary",
          "type": "address"
        },
        {
          "internalType": "uint256",
          "name": "withdrawAmount",
          "type": "uint256"
        }
      ],
      "name": "withdrawFunds",
      "outputs": [],
      "stateMutability": "nonpayable",
      "type": "function"
    },
    {
      "inputs": [
        {
          "internalType": "address",
          "name": "tokenAddress",
          "type": "address"
        }
      ],
      "name": "withdrawTokens",
      "outputs": [],
      "stateMutability": "nonpayable",
      "type": "function"
    },
    {
      "stateMutability": "payable",
      "type": "receive"
    }
  ],
  "bytecode": {
    "object": "0x60c0604052600280547e779877a7b0d9e8603169ddbd7836e478b4624789000000010003000186a0007fff000000000000000000000000000000000000000000000000000000000000ff909116179055600380546001600160a01b03191673ab18414cd93297b0d12ac29e63ca20f515b3db4617905567016345785d8a00006004556001600581905568a2a15d09519be00000600881905560099190915566038d7ea4c68000600a5568056bc75e2d63100000600b55600c553480156100c457600080fd5b506002546003546001600160a01b036b01000000000000000000000090920482166080521660a0526100fb6100f63390565b61010e565b600180556002805460ff1916905561015e565b600080546001600160a01b038381166001600160a01b0319831681178455604051919092169283917f8be0079c531659141344cd1fd0a4f28419497f9722a3daafe3b4186f6b6457e09190a35050565b60805160a051611fb161019f60003960008181610631015281816114da01526115e30152600081816108580152818161108301526114b00152611fb16000f3fe6080604052600436106101f25760003560e01c80638da5cb5b1161010d578063d1cc24ec116100a0578063f2fde38b1161006f578063f2fde38b14610521578063f5db18a914610541578063f6c4fc78146105c3578063fbd668a9146105f0578063fea4ae9d1461061057610211565b8063d1cc24ec146104cd578063d38dc979146104e2578063e1fdb4b4146104f8578063f1dcee131461050b57610211565b8063bbd86868116100dc578063bbd8686814610461578063bd7fd78d14610477578063c107532914610497578063cf31dd32146104b757610211565b80638da5cb5b146103e6578063a284673f1461040e578063acd1f2541461042e578063af3dc07f1461044157610211565b806352cf46e0116101855780636cd0f102116101545780636cd0f1021461037c578063715018a61461039c5780637cfbc7a5146103b1578063853828b6146103d157610211565b806352cf46e01461030d57806356e02c6b146103235780635c975abb146103395780636c1885931461035c57610211565b806333d2cea2116101c157806333d2cea2146102a4578063340d899a146102c457806349df728c146102da5780634afe62b5146102fa57610211565b8063119e783d1461022357806316280f811461024c5780631fe543e314610262578063216c2f991461028457610211565b366102115734600660008282546102099190611aeb565b925050819055005b34600660008282546102099190611aeb565b34801561022f57600080fd5b50610239600a5481565b6040519081526020015b60405180910390f35b34801561025857600080fd5b50610239600b5481565b34801561026e57600080fd5b5061028261027d366004611b19565b610626565b005b34801561029057600080fd5b5061023961029f366004611be3565b6106b1565b3480156102b057600080fd5b506102396102bf366004611bfc565b6106d4565b3480156102d057600080fd5b5061023960045481565b3480156102e657600080fd5b506102826102f5366004611c3d565b610759565b610282610308366004611c5a565b610814565b34801561031957600080fd5b5061023960085481565b34801561032f57600080fd5b5061023960095481565b34801561034557600080fd5b5060025460ff166040519015158152602001610243565b34801561036857600080fd5b50610282610377366004611be3565b610d02565b34801561038857600080fd5b50610282610397366004611be3565b610d31565b3480156103a857600080fd5b50610282610d60565b3480156103bd57600080fd5b506102826103cc366004611be3565b610d96565b3480156103dd57600080fd5b50610282610df1565b3480156103f257600080fd5b506000546040516001600160a01b039091168152602001610243565b34801561041a57600080fd5b50610282610429366004611be3565b610f13565b34801561043a57600080fd5b5047610239565b34801561044d57600080fd5b5061028261045c366004611be3565b610f42565b34801561046d57600080fd5b50610239600d5481565b34801561048357600080fd5b50610282610492366004611be3565b610f71565b3480156104a357600080fd5b506102826104b2366004611c7c565b610fa0565b3480156104c357600080fd5b5061023960065481565b3480156104d957600080fd5b5061023961106b565b3480156104ee57600080fd5b5061023960075481565b610282610506366004611be3565b6110fb565b34801561051757600080fd5b50610239600c5481565b34801561052d57600080fd5b5061028261053c366004611c3d565b6112a1565b34801561054d57600080fd5b5061056161055c366004611be3565b611339565b604080519a8b5260ff998a1660208c0152979098169689019690965264ffffffffff94909416606088015260808701929092526001600160a01b031660a0860152151560c085015260e084015261010083015261012082015261014001610243565b3480156105cf57600080fd5b506102396105de366004611be3565b600f6020526000908152604090205481565b3480156105fc57600080fd5b5061028261060b366004611be3565b6113b4565b34801561061c57600080fd5b5061023960055481565b336001600160a01b037f000000000000000000000000000000000000000000000000000000000000000016146106a35760405162461bcd60e51b815260206004820152601f60248201527f6f6e6c792056524620563220777261707065722063616e2066756c66696c6c0060448201526064015b60405180910390fd5b6106ad828261140f565b5050565b6000600954600854836106c49190611cbe565b6106ce9190611cd2565b92915050565b60008115806106e257508183105b15610700576040516303278db560e21b815260040160405180910390fd5b6000606461070d866106b1565b60055461071a9190611aeb565b6107249087611cd2565b61072e9190611cbe565b9050828461073c8388611cf1565b6107469190611cd2565b6107509190611cbe565b95945050505050565b6000546001600160a01b031633146107835760405162461bcd60e51b815260040161069a90611d08565b6108116107986000546001600160a01b031690565b6040516370a0823160e01b81523060048201526001600160a01b038416906370a0823190602401602060405180830381865afa1580156107dc573d6000803e3d6000fd5b505050506040513d601f19601f820116820180604052508101906108009190611d3d565b6001600160a01b0384169190611433565b50565b6002600154036108365760405162461bcd60e51b815260040161069a90611d56565b6002600155600480546040516370a0823160e01b8152309281019290925234917f00000000000000000000000000000000000000000000000000000000000000006001600160a01b0316906370a0823190602401602060405180830381865afa1580156108a7573d6000803e3d6000fd5b505050506040513d601f19601f820116820180604052508101906108cb9190611d3d565b10156108ea576040516364b72d6760e11b815260040160405180910390fd5b600a548110806108fb575080600b54105b1561091c576040516349d7eaf760e11b81526004810182905260240161069a565b60018211158061092c5750816064105b1561094d5760405163505e567560e01b81526004810183905260240161069a565b82158061096457508261096260286002611e71565b105b156109855760405163396c87a760e01b81526004810184905260240161069a565b600080602884116109eb57603f7e010410410410410410410410410410410410410410410410410410410410416109d679200000000010000000000800000000040000000002000000000188611cd2565b166109e19190611e7d565b9150849050610a19565b8415806109f757508484105b15610a1557604051631e51c6bb60e21b815260040160405180910390fd5b8491505b6000610a268486856106d4565b905080600c5485610a379190611aeb565b1015610a5657604051633bd9f7af60e11b815260040160405180910390fd5b80600d54610a649190611aeb565b471015610a8457604051633886600b60e01b815260040160405180910390fd5b80600d6000828254610a969190611aeb565b9091555050604080516101408101825285815260ff8088166020830190815286821693830193845264ffffffffff8087166060850190815243608086019081523360a08701908152600060c0880181815260e08901828152610100808b018481526101208c01858152600e80546001810182559087529c516007909d027fbb7b4a454dc3493923482f07822329ed19e8244eff582cc204f8554c3620c3fd81019d909d5599517fbb7b4a454dc3493923482f07822329ed19e8244eff582cc204f8554c3620c3fe8d0180549e519951909a16620100000266ffffffffff000019998d16840261ffff19909f1691909c16179c909c17969096169890981790955591517fbb7b4a454dc3493923482f07822329ed19e8244eff582cc204f8554c3620c3ff880155517fbb7b4a454dc3493923482f07822329ed19e8244eff582cc204f8554c3620c4008701805494511515600160a01b026001600160a81b03199095166001600160a01b0392909216919091179390931790925592517fbb7b4a454dc3493923482f07822329ed19e8244eff582cc204f8554c3620c40185015593517fbb7b4a454dc3493923482f07822329ed19e8244eff582cc204f8554c3620c402840155517fbb7b4a454dc3493923482f07822329ed19e8244eff582cc204f8554c3620c40390920191909155600254610cb69163ffffffff90820481169161ffff65010000000000820416916701000000000000009091041661148a565b600e546000828152600f60205260408082208390555192935033927f71db8f0b94a6ae898ff1583920da121c8f18ea26ad96353276843685325262e19190a35050600180555050505050565b6000546001600160a01b03163314610d2c5760405162461bcd60e51b815260040161069a90611d08565b600a55565b6000546001600160a01b03163314610d5b5760405162461bcd60e51b815260040161069a90611d08565b600555565b6000546001600160a01b03163314610d8a5760405162461bcd60e51b815260040161069a90611d08565b610d94600061166d565b565b6000546001600160a01b03163314610dc05760405162461bcd60e51b815260040161069a90611d08565b806a0422ca8b0a00a4250000001015610dec5760405163c7544a2d60e01b815260040160405180910390fd5b600b55565b6000546001600160a01b03163314610e1b5760405162461bcd60e51b815260040161069a90611d08565b6000600d5447610e2b9190611cf1565b90508060076000828254610e3f9190611aeb565b9091555050604051339082156108fc029083906000818181858888f19350505050158015610e71573d6000803e3d6000fd5b50610811610e876000546001600160a01b031690565b6002546040516370a0823160e01b8152306004820152600160581b9091046001600160a01b0316906370a0823190602401602060405180830381865afa158015610ed5573d6000803e3d6000fd5b505050506040513d601f19601f82011682018060405250810190610ef99190611d3d565b600254600160581b90046001600160a01b03169190611433565b6000546001600160a01b03163314610f3d5760405162461bcd60e51b815260040161069a90611d08565b600455565b6000546001600160a01b03163314610f6c5760405162461bcd60e51b815260040161069a90611d08565b600855565b6000546001600160a01b03163314610f9b5760405162461bcd60e51b815260040161069a90611d08565b600955565b6000546001600160a01b03163314610fca5760405162461bcd60e51b815260040161069a90611d08565b80471015610feb57604051635333556f60e11b815260040160405180910390fd5b80600d5447610ffa9190611cf1565b101561101957604051631b7cad5760e21b815260040160405180910390fd5b6040516001600160a01b0383169082156108fc029083906000818181858888f1935050505015801561104f573d6000803e3d6000fd5b5080600760008282546110629190611aeb565b90915550505050565b6040516370a0823160e01b81523060048201526000907f00000000000000000000000000000000000000000000000000000000000000006001600160a01b0316906370a0823190602401602060405180830381865afa1580156110d2573d6000803e3d6000fd5b505050506040513d601f19601f820116820180604052508101906110f69190611d3d565b905090565b60026001540361111d5760405162461bcd60e51b815260040161069a90611d56565b60026001819055506000600e828154811061113a5761113a611e91565b90600052602060002090600702019050806000015460000361116f57604051635c21ed8d60e01b815260040160405180910390fd5b6003810154600160a01b900460ff161561119c576040516305d09e5f60e01b815260040160405180910390fd5b60028101546111ad9061a8c0611aeb565b4310156111cd576040516364788a2f60e01b815260040160405180910390fd5b805460018201546000916111ec9160ff808216916101009004166106d4565b905080600d60008282546112009190611cf1565b909155505060038201805460ff60a01b198116600160a01b179091558254600584018190556040516001600160a01b039092169181156108fc0291906000818181858888f1935050505015801561125b573d6000803e3d6000fd5b5060038201546040516001600160a01b039091169084907f82ed3ad28d47d7fc600c710a2000a6940ee285829493f6a21969b1ccad85ec7090600090a350506001805550565b6000546001600160a01b031633146112cb5760405162461bcd60e51b815260040161069a90611d08565b6001600160a01b0381166113305760405162461bcd60e51b815260206004820152602660248201527f4f776e61626c653a206e6577206f776e657220697320746865207a65726f206160448201526564647265737360d01b606482015260840161069a565b6108118161166d565b600e818154811061134957600080fd5b6000918252602090912060079091020180546001820154600283015460038401546004850154600586015460069096015494965060ff8085169661010086048216966201000090960464ffffffffff16956001600160a01b03851694600160a01b900490921692918a565b6000546001600160a01b031633146113de5760405162461bcd60e51b815260040161069a90611d08565b806a0422ca8b0a00a425000000101561140a57604051635221461f60e01b815260040160405180910390fd5b600c55565b6106ad828260008151811061142657611426611e91565b60200260200101516116bd565b604080516001600160a01b038416602482015260448082018490528251808303909101815260649091019091526020810180516001600160e01b031663a9059cbb60e01b1790526114859084906118ef565b505050565b6040516310c1b4d560e21b815263ffffffff841660048201526000906001600160a01b037f0000000000000000000000000000000000000000000000000000000000000000811691634000aea0917f00000000000000000000000000000000000000000000000000000000000000009190821690634306d35490602401602060405180830381865afa158015611524573d6000803e3d6000fd5b505050506040513d601f19601f820116820180604052508101906115489190611d3d565b6040805163ffffffff808b16602083015261ffff8a169282019290925290871660608201526080016040516020818303038152906040526040518463ffffffff1660e01b815260040161159d93929190611f03565b6020604051808303816000875af11580156115bc573d6000803e3d6000fd5b505050506040513d601f19601f820116820180604052508101906115e09190611f2a565b507f00000000000000000000000000000000000000000000000000000000000000006001600160a01b031663fc2a88c36040518163ffffffff1660e01b8152600401602060405180830381865afa15801561163f573d6000803e3d6000fd5b505050506040513d601f19601f820116820180604052508101906116639190611d3d565b90505b9392505050565b600080546001600160a01b038381166001600160a01b0319831681178455604051919092169283917f8be0079c531659141344cd1fd0a4f28419497f9722a3daafe3b4186f6b6457e09190a35050565b6002600154036116df5760405162461bcd60e51b815260040161069a90611d56565b60026001556000828152600f6020526040812054600e80549192918390811061170a5761170a611e91565b60009182526020822060079091020180549092509081900361173f57604051635c21ed8d60e01b815260040160405180910390fd5b6003820154600160a01b900460ff161561176c576040516305d09e5f60e01b815260040160405180910390fd5b6001820154600383015460ff80831692610100900416906001600160a01b031660006117988489611e7d565b905060006117a78686866106d4565b90506000602886116117e857600188015462010000900464ffffffffff166117d0846002611e71565b16156117dd5750806117e8565b848310156117e85750805b60018801546040805189815260ff88811660208301526201000090930464ffffffffff16918101919091526060810185905260808101839052908716906001600160a01b038616908b907f6cff91e6d6b58d75f3dabb17af3f33987150949dd8c24c48bf0d8d685f474ff99060a00160405180910390a481600d60008282546118719190611cf1565b909155505060038801805460ff60a01b1916600160a01b17905560058801819055600688018a90556004880183905580156118de576040516001600160a01b0385169082156108fc029083906000818181858888f193505050501580156118dc573d6000803e3d6000fd5b505b505060018055505050505050505050565b6000611944826040518060400160405280602081526020017f5361666545524332303a206c6f772d6c6576656c2063616c6c206661696c6564815250856001600160a01b03166119c19092919063ffffffff16565b80519091501561148557808060200190518101906119629190611f2a565b6114855760405162461bcd60e51b815260206004820152602a60248201527f5361666545524332303a204552433230206f7065726174696f6e20646964206e6044820152691bdd081cdd58d8d9595960b21b606482015260840161069a565b60606116638484600085856001600160a01b0385163b611a235760405162461bcd60e51b815260206004820152601d60248201527f416464726573733a2063616c6c20746f206e6f6e2d636f6e7472616374000000604482015260640161069a565b600080866001600160a01b03168587604051611a3f9190611f4c565b60006040518083038185875af1925050503d8060008114611a7c576040519150601f19603f3d011682016040523d82523d6000602084013e611a81565b606091505b5091509150611a91828286611a9c565b979650505050505050565b60608315611aab575081611666565b825115611abb5782518084602001fd5b8160405162461bcd60e51b815260040161069a9190611f68565b634e487b7160e01b600052601160045260246000fd5b60008219821115611afe57611afe611ad5565b500190565b634e487b7160e01b600052604160045260246000fd5b60008060408385031215611b2c57600080fd5b8235915060208084013567ffffffffffffffff80821115611b4c57600080fd5b818601915086601f830112611b6057600080fd5b813581811115611b7257611b72611b03565b8060051b604051601f19603f83011681018181108582111715611b9757611b97611b03565b604052918252848201925083810185019189831115611bb557600080fd5b938501935b82851015611bd357843584529385019392850192611bba565b8096505050505050509250929050565b600060208284031215611bf557600080fd5b5035919050565b600080600060608486031215611c1157600080fd5b505081359360208301359350604090920135919050565b6001600160a01b038116811461081157600080fd5b600060208284031215611c4f57600080fd5b813561166681611c28565b60008060408385031215611c6d57600080fd5b50508035926020909101359150565b60008060408385031215611c8f57600080fd5b8235611c9a81611c28565b946020939093013593505050565b634e487b7160e01b600052601260045260246000fd5b600082611ccd57611ccd611ca8565b500490565b6000816000190483118215151615611cec57611cec611ad5565b500290565b600082821015611d0357611d03611ad5565b500390565b6020808252818101527f4f776e61626c653a2063616c6c6572206973206e6f7420746865206f776e6572604082015260600190565b600060208284031215611d4f57600080fd5b5051919050565b6020808252601f908201527f5265656e7472616e637947756172643a207265656e7472616e742063616c6c00604082015260600190565b600181815b80851115611dc8578160001904821115611dae57611dae611ad5565b80851615611dbb57918102915b93841c9390800290611d92565b509250929050565b600082611ddf575060016106ce565b81611dec575060006106ce565b8160018114611e025760028114611e0c57611e28565b60019150506106ce565b60ff841115611e1d57611e1d611ad5565b50506001821b6106ce565b5060208310610133831016604e8410600b8410161715611e4b575081810a6106ce565b611e558383611d8d565b8060001904821115611e6957611e69611ad5565b029392505050565b60006116668383611dd0565b600082611e8c57611e8c611ca8565b500690565b634e487b7160e01b600052603260045260246000fd5b60005b83811015611ec2578181015183820152602001611eaa565b83811115611ed1576000848401525b50505050565b60008151808452611eef816020860160208601611ea7565b601f01601f19169290920160200192915050565b60018060a01b03841681528260208201526060604082015260006107506060830184611ed7565b600060208284031215611f3c57600080fd5b8151801515811461166657600080fd5b60008251611f5e818460208701611ea7565b9190910192915050565b6020815260006116666020830184611ed756fea2646970667358221220fc0fe359d26621f33dca08792d4099f70bfebf7f00f5aaa69f9f4dd78b55fe0364736f6c634300080e0033",
    "linkReferences": {}
  },
  "methodIdentifiers": {
    "_betMap(uint256)": "f6c4fc78",
    "_bets(uint256)": "f5db18a9",
    "_chainlinkFee()": "340d899a",
    "_cumulativeDeposit()": "cf31dd32",
    "_cumulativeWithdrawal()": "d38dc979",
    "_houseEdgePercent()": "fea4ae9d",
    "_lockedInBets()": "bbd86868",
    "_maxBetAmount()": "16280f81",
    "_maxProfit()": "f1dcee13",
    "_minBetAmount()": "119e783d",
    "_wealthTaxIncrementPercent()": "56e02c6b",
    "_wealthTaxIncrementThreshold()": "52cf46e0",
    "getBalanceETH()": "acd1f254",
    "getBalanceLINK()": "d1cc24ec",
    "getDiceWinAmount(uint256,uint256,uint256)": "33d2cea2",
    "getWealthTax(uint256)": "216c2f99",
    "owner()": "8da5cb5b",
    "paused()": "5c975abb",
    "placeBet(uint256,uint256)": "4afe62b5",
    "rawFulfillRandomWords(uint256,uint256[])": "1fe543e3",
    "refundBet(uint256)": "e1fdb4b4",
    "renounceOwnership()": "715018a6",
    "setChainlinkFee(uint256)": "a284673f",
    "setHouseEdge(uint256)": "6cd0f102",
    "setMaxBetAmount(uint256)": "7cfbc7a5",
    "setMaxProfit(uint256)": "fbd668a9",
    "setMinBetAmount(uint256)": "6c188593",
    "setWealthTaxIncrementPercent(uint256)": "bd7fd78d",
    "setWealthTaxIncrementThreshold(uint256)": "af3dc07f",
    "transferOwnership(address)": "f2fde38b",
    "withdrawAll()": "853828b6",
    "withdrawFunds(address,uint256)": "c1075329",
    "withdrawTokens(address)": "49df728c"
  },
  "id": 10
}